:10000000006C002081E40100BDE40100BDE40100BA
:10001000BDE40100BDE40100BDE4010000000000FA
:10002000000000000000000000000000BDE401002E
:10003000BDE4010000000000BDE40100F19A0300EE
:10004000BDE40100BDE40100BDE40100BDE4010028
:10005000BDE40100BDE40100BDE40100BDE4010018
:10006000BDE40100BDE40100BDE40100BDE4010008
:10007000BDE40100BDE40100BDE40100BDE40100F8
:10008000BDE40100BDE40100BDE40100BDE40100E8
:10009000BDE40100BDE40100BDE40100BDE40100D8
:1000A000BDE40100BDE40100BDE40100BDE40100C8
:1000B000BDE40100BDE40100BDE40100BDE40100B8
:1000C000BDE40100BDE40100BDE40100BDE40100A8
:1000D000BDE40100BDE40100BDE40100BDE4010098
:1000E000BDE40100BDE40100BDE40100BDE4010088
:1000F000BDE40100BDE40100BDE40100BDE4010078
:10010000BDE40100BDE40100BDE40100BDE4010067
:10011000BDE40100BDE40100BDE40100BDE4010057
:10012000BDE40100BDE40100BDE40100817C0300E9
:10013000BDE40100A97C0300BDE401004980030087
:10014000BDE40100BDE40100BDE40100BDE4010027
:10015000BDE40100BDE40100BDE40100BDE4010017
:10016000BDE40100BDE40100BDE40100BDE4010007
:10017000BDE40100BDE40100619603006D9603003B
:10018000799603004996030055960300BDE40100EB
:10019000BDE40100919603009D960300BDE40100BB
:1001A00085960300BDE40100BDE40100BDE401004B
:1001B000B5960300C1960300BDE40100A9960300B3
:1001C000BDE40100BDE40100BDE40100BDE40100A7
:1001D000BDE40100BDE40100BDE40100BDE4010097
:1001E000BDE40100BDE40100BDE40100BDE4010087
:1001F000BDE40100BDE40100BDE40100BDE4010077
:10020000BDE40100BDE40100BDE40100BDE4010066
:10021000BDE40100BDE40100BDE40100BDE4010056
:10022000BDE40100BDE40100BDE401005DEA0100A0
:100230005DEA01005DEA01005DEA01005DEA01009E
:100240005DEA01005DEA01005DEA01005DEA01008E
:100250005DEA01005DEA01005DEA01005DEA01007E
:100260005DEA01005DEA01005DEA01005DEA01006E
:100270005DEA01005DEA01005DEA01005DEA01005E
:100280005DEA01005DEA01005DEA01005DEA01004E
:100290005DEA01005DEA01005DEA01005DEA01003E
:1002A0005DEA01005DEA01005DEA01005DEA01002E
:1002B0005DEA01005DEA01005DEA01005DEA01001E
:1002C0005DEA01005DEA01005DEA01005DEA01000E
:1002D0005DEA01005DEA01005DEA01005DEA0100FE
:1002E0005DEA01005DEA01005DEA01005DEA0100EE
:1002F0005DEA01005DEA01005DEA01005DEA0100DE
:100300005DEA01005DEA01005DEA01005DEA0100CD
:100310005DEA01005DEA01005DEA01005DEA0100BD
:100320005DEA01005DEA01005DEA01005DEA0100AD
:100330005DEA01005DEA01005DEA01005DEA01009D
:100340005DEA01005DEA01005DEA01005DEA01008D
:100350005DEA01005DEA01005DEA01005DEA01007D
:100360005DEA01005DEA01005DEA01005DEA01006D
:100370005DEA01005DEA01005DEA01005DEA01005D
:100380005DEA01005DEA01005DEA01005DEA01004D
:100390005DEA01005DEA01005DEA01005DEA01003D
:1003A0005DEA01005DEA01005DEA01005DEA01002D
:1003B0005DEA01005DEA01005DEA01005DEA01001D
:1003C0005DEA01005DEA01005DEA01005DEA01000D
:1003D0005DEA01005DEA01005DEA01005DEA0100FD
:1003E0005DEA01005DEA01005DEA01005DEA0100ED
:1003F0005DEA01005DEA01005DEA0100FFFFFFFF29
:10040000FFFFFFFFFFFFFFFFFFFFFFFFFE7FFFFF7D
:020000021000EC
:10E01000414142420000000056302E3031332E3153
:10E0200032200000000000003132333435363738FA
:10E030003132333435363738313233343536373898
:10E040003132333435363738313233343536373888
:10E0500000000000000000000000000000000000C0
:10E0600000000000000000000000000000000000B0
:10E0700000000000000000000000000000000000A0
:10E08000006C002081E40100BDE40100BDE401005A
:10E09000BDE40100BDE40100BDE40100000000009A
:10E0A000000000000000000000000000BDE40100CE
:10E0B000BDE4010000000000BDE40100F19A03008E
:10E0C000BDE40100BDE40100BDE40100BDE40100C8
:10E0D000BDE40100BDE40100BDE40100BDE40100B8
:10E0E000BDE40100BDE40100BDE40100BDE40100A8
:10E0F000BDE40100BDE40100BDE40100BDE4010098
:10E10000BDE40100BDE40100BDE40100BDE4010087
:10E11000BDE40100BDE40100BDE40100BDE4010077
:10E12000BDE40100BDE40100BDE40100BDE4010067
:10E13000BDE40100BDE40100BDE40100BDE4010057
:10E14000BDE40100BDE40100BDE40100BDE4010047
:10E15000BDE40100BDE40100BDE40100BDE4010037
:10E16000BDE40100BDE40100BDE40100BDE4010027
:10E17000BDE40100BDE40100BDE40100BDE4010017
:10E18000BDE40100BDE40100BDE40100BDE4010007
:10E19000BDE40100BDE40100BDE40100BDE40100F7
:10E1A000BDE40100BDE40100BDE40100817C030089
:10E1B000BDE40100A97C0300BDE401004980030027
:10E1C000BDE40100BDE40100BDE40100BDE40100C7
:10E1D000BDE40100BDE40100BDE40100BDE40100B7
:10E1E000BDE40100BDE40100BDE40100BDE40100A7
:10E1F000BDE40100BDE40100619603006D960300DB
:10E20000799603004996030055960300BDE401008A
:10E21000BDE40100919603009D960300BDE401005A
:10E2200085960300BDE40100BDE40100BDE40100EA
:10E23000B5960300C1960300BDE40100A996030052
:10E24000BDE40100BDE40100BDE40100BDE4010046
:10E25000BDE40100BDE40100BDE40100BDE4010036
:10E26000BDE40100BDE40100BDE40100BDE4010026
:10E27000BDE40100BDE40100BDE40100BDE4010016
:10E28000BDE40100BDE40100BDE40100BDE4010006
:10E29000BDE40100BDE40100BDE40100BDE40100F6
:10E2A000BDE40100BDE40100BDE401005DEA010040
:10E2B0005DEA01005DEA01005DEA01005DEA01003E
:10E2C0005DEA01005DEA01005DEA01005DEA01002E
:10E2D0005DEA01005DEA01005DEA01005DEA01001E
:10E2E0005DEA01005DEA01005DEA01005DEA01000E
:10E2F0005DEA01005DEA01005DEA01005DEA0100FE
:10E300005DEA01005DEA01005DEA01005DEA0100ED
:10E310005DEA01005DEA01005DEA01005DEA0100DD
:10E320005DEA01005DEA01005DEA01005DEA0100CD
:10E330005DEA01005DEA01005DEA01005DEA0100BD
:10E340005DEA01005DEA01005DEA01005DEA0100AD
:10E350005DEA01005DEA01005DEA01005DEA01009D
:10E360005DEA01005DEA01005DEA01005DEA01008D
:10E370005DEA01005DEA01005DEA01005DEA01007D
:10E380005DEA01005DEA01005DEA01005DEA01006D
:10E390005DEA01005DEA01005DEA01005DEA01005D
:10E3A0005DEA01005DEA01005DEA01005DEA01004D
:10E3B0005DEA01005DEA01005DEA01005DEA01003D
:10E3C0005DEA01005DEA01005DEA01005DEA01002D
:10E3D0005DEA01005DEA01005DEA01005DEA01001D
:10E3E0005DEA01005DEA01005DEA01005DEA01000D
:10E3F0005DEA01005DEA01005DEA01005DEA0100FD
:10E400005DEA01005DEA01005DEA01005DEA0100EC
:10E410005DEA01005DEA01005DEA01005DEA0100DC
:10E420005DEA01005DEA01005DEA01005DEA0100CC
:10E430005DEA01005DEA01005DEA01005DEA0100BC
:10E440005DEA01005DEA01005DEA01005DEA0100AC
:10E450005DEA01005DEA01005DEA01005DEA01009C
:10E460005DEA01005DEA01005DEA01005DEA01008C
:10E470005DEA01005DEA01005DEA0100FFFFFFFFC8
:10E4800072B60A49094A094B084C084D074E074F16
:10E49000B846B946BA46BB46BC4605488546054817
:10E4A00080470548804700F0DFFAFEE700000000E3
:10E4B000006C0020B5B70300A9B6030000F0CEBA87
:10E4C00053B94AB9002908BF00281CBF4FF0FF31DB
:10E4D0004FF0FF3000F03CB882B0EC462DE9005020
:10E4E00000F01EF8DDF804E002B00CBC704700BF7D
:10E4F0002DE9F041069C154606460F46984600F069
:10E5000029F805FB01F300FB0838A5FB0023B21A2C
:10E51000434467EB0303C4E90023BDE8F08100BF77
:10E520002DE9F041069C904606460F461D4600F038
:10E530005FF900FB05F5A0FB082308FB0155B21AA3
:10E540002B4467EB0303C4E90023BDE8F08100BF5F
:10E55000704700BF00292DE9F043C0F2A6800026D5
:10E56000002BC0F29C80884694469E461546044681
:10E570000F46002B3DD18A4259D9B2FA82F33BB102
:10E58000C3F120029F4020FA02F29D4017439C40B5
:10E59000290C220CB7FBF1FEA8B201FB1E7742EA60
:10E5A000074700FB0EF3BB420AD97F190EF1FF3279
:10E5B00080F00581BB4240F20281AEF1020E2F4491
:10E5C000FF1AA4B2B7FBF1F301FB137744EA074744
:10E5D00000FB03F0B84208D97F1903F1FF3280F045
:10E5E000F080B84240F2ED80023B43EA0E43002245
:10E5F00003E08B420FD900221346341C18BF0124BC
:10E6000060424FF0000565EB45015840514000194C
:10E610006941BDE8F083B3FA83F2002A40F08680B6
:10E620008B4202D3844500F2DB800123E5E712B977
:10E630000123B3FBF2F5B5FA85F000283BD1781B36
:10E640004FEA154E1FFA85FC0122B0FBFEF8210CA3
:10E650000EFB180741EA07470CFB08F3BB4207D93A
:10E660007F1908F1FF3102D2BB4200F2BD8088461B
:10E67000FF1AA4B2B7FBFEF30EFB137744EA074779
:10E680000CFB03FCBC4507D97F1903F1FF3102D213
:10E69000BC4500F2A7800B4643EA0843ADE752426F
:10E6A0006FEA060663EB43035DE7404261EB41011D
:10E6B0004FF0FF3654E7C0F1200224FA02F107FAC6
:10E6C00000F385404FEA154ED7401943B7FBFEF2E1
:10E6D0000B0C0EFB12771FFA85FC43EA07430CFB79
:10E6E00002F79F4204FA00F407D95B1902F1FF30E8
:10E6F00074D29F4272D9023A2B44DF1B89B2B7FB16
:10E70000FEF80EFB187341EA03430CFB08F79F4227
:10E7100008D95B1908F1FF315CD29F425AD9A8F1A0
:10E7200002082B44D81B48EA02428EE7C2F12003BC
:10E730002CFA03F10EFA02FE20FA03F741EA0E0E5C
:10E7400008FA02F028FA03F14FEA1E453843B1FBFC
:10E75000F5F8030C05FB18111FFA8EF743EA014187
:10E7600007FB08F38B420CFA02FC09D911EB0E01EE
:10E7700008F1FF3930D28B422ED9A8F1020871443A
:10E78000C91A80B2B1FBF5F305FB131140EA014150
:10E7900007FB03F78F4208D911EB0E0103F1FF309D
:10E7A00016D28F4214D9023B714443EA0843C91B75
:10E7B000A3FB0C89494509D305D000221DE79646E5
:10E7C000FEE6134611E794404445F6D2013BF4E7D8
:10E7D0000346EAE78846A5E7C846D1E702468CE744
:10E7E00013460AE7023B57E7A8F102082F443FE728
:10E7F0002DE9F041002B44D18A42154604464FD9F9
:10E80000B2FA82F70E464FB1C7F12003B94020FAA1
:10E8100003F602FA07F50E4300FA07F44FEA154E25
:10E82000230CB6FBFEF0AFB20EFB106143EA0143CE
:10E8300007FB00F1994209D95B1900F1FF3280F022
:10E84000EC80994240F2E98002382B445A1AA4B273
:10E85000B2FBFEF30EFB132244EA024207FB03F76E
:10E86000974208D9521903F1FF3180F0D8809742BE
:10E8700040F2D580023B43EA004000263146BDE825
:10E88000F0818B4247D8B3FA83F6002E48D18B42F1
:10E8900002D3824200F2CD8001203146BDE8F081F2
:10E8A00012B90125B5FBF2F5B5FA85F8B8F1000FFC
:10E8B00077D14A1B4FEA154EAFB20126B2FBFEF0EC
:10E8C000230C0EFB102143EA014107FB00F38B42AE
:10E8D00007D9491900F1FF3202D28B4200F2BA8007
:10E8E0001046C91AA4B2B1FBFEF30EFB131144EAA1
:10E8F000014407FB03F7A74208D9641903F1FF326B
:10E9000080F08F80A74240F28C80023B43EA0040B7
:10E910003146BDE8F081002630463146BDE8F08141
:10E92000C6F1200422FA04F5B3402B4320FA04FC7C
:10E9300001FA06F721FA04F54FEA134E4CEA0707ED
:10E94000B5FBFEF8390C0EFB18551FFA83FC41EAA3
:10E9500005450CFB08F1A94202FA06F204D9ED18AC
:10E9600008F1FF3467D3A0466D1ABFB2B5FBFEF4C1
:10E970000EFB145547EA05410CFB04FC8C4504D9F9
:10E98000C91804F1FF355CD32C4644EA0844CCEBAB
:10E990000101A4FB0223994248D344D0204600261B
:10E9A0006CE7C8F1200401FA08F305FA08F520FA2B
:10E9B00004F7E1404FEA154E1F43B1FBFEF63A0C57
:10E9C0000EFB16111FFA85FC42EA01430CFB06F20E
:10E9D0009A4200FA08F407D95B1906F1FF3137D2E1
:10E9E0009A4235D9023E2B449B1ABFB2B3FBFEF0CC
:10E9F0000EFB103347EA03430CFB00F1994207D9A1
:10EA00005B1900F1FF3221D299421FD902382B4401
:10EA10005A1A40EA0646674650E7104616E70B4684
:10EA200029E7134672E7B0409042B7D2601E002635
:10EA300024E7304622E7A94295D9A8F102081D44EF
:10EA400092E78C45A0D9023C19449EE71046DFE7C7
:10EA50000E46C9E70238294443E700BF80B400AF3F
:10EA6000BD465DF8047B704780B500AF0A480121C0
:10EA70000A4A00231BF0A0F9002000211BF0BEF978
:10EA800001F026F8064B1B68002B00D000E0F9E7E8
:10EA9000034B1B68184680BD2492FF1F8815002079
:10EAA0000000002080B483B000AF78600B467B800C
:10EAB0007B68002B18D07B685B887A88D31A9AB25F
:10EAC0000C4B1B8813449AB27B681A807B681B88A6
:10EAD000013B9AB2074B1B889A4205D97B681B8879
:10EAE000013B9AB27B681A800C37BD465DF8047B07
:10EAF000704700BF8C15002080B483B000AF7860F1
:10EB00007B68002B02D07B6800221A800C37BD4640
:10EB10005DF8047B704700BF80B485B000AF7860BB
:10EB20000023FB737B68002B05D07B681B88002BC0
:10EB300001D00123FB73FB7B18461437BD465DF8FB
:10EB4000047B704780B485B000AF78600023FB730E
:10EB50007B68002B2AD07B681B88002B26D0174BA4
:10EB60001A887B681B88D31ABB817B681A88134B71
:10EB70001B889A4202D9BB89013BBB817B685B88B9
:10EB8000BA899A4212D37B681A887B685B881344DF
:10EB90007B817B681B887A899A4202D27B89013308
:10EBA0007B817B687A891A800123FB73FB7B184683
:10EBB0001437BD465DF8047B704700BF8C150020FC
:10EBC00080B500AF094B01221A80094B01221A704F
:10EBD000084B4FF480221A60054B1B785B00DBB2B8
:10EBE0000448194600F042FD80BD00BF8C1500208E
:10EBF0000C0000200400002080B483B000AF7860D7
:10EC00007B68002B03D0044B1A887B681A800C3772
:10EC1000BD465DF8047B70478C15002080B483B03E
:10EC200000AF78607B68002B02D07B6800221A80DE
:10EC30000C37BD465DF8047B704700BF80B485B0DB
:10EC400000AF78600023FB737B68002B05D07B68E6
:10EC50001B88002B01D00123FB73FB7B1846143764
:10EC6000BD465DF8047B704780B485B000AF786026
:10EC70000B467B8000237B737B68002B21D07B6855
:10EC80001B88002B02D101237B731AE0104B1A88DA
:10EC90007B681B88D31AFB817B681A880C4B1B8806
:10ECA0009A4202D9FB89013BFB81FA897B889A420F
:10ECB00002D87B88002B04D17B6800221A800123B4
:10ECC0007B737B7B18461437BD465DF8047B704729
:10ECD0008C15002080B400AF0C4B1B789AB20C4B03
:10ECE0001B8813449AB20A4B1A80084B1B789AB2BD
:10ECF000074B1B889A4205D9054B1B8801339AB2F2
:10ED0000034B1A80BD465DF8047B70470C00002061
:10ED10008C15002080B582B000AF0346FB710A4A13
:10ED2000FB791370084B1B785B00DAB2074B1A7142
:10ED3000054B1B785B00DBB20448194600F096FCDB
:10ED40000837BD4680BD00BF0C0000200400002035
:10ED500080B500AF014800F0B3FC80BD0400002086
:10ED600080B500AF0248002102221CF066FD80BD84
:10ED70001000002080B584B000AF0346FB80FB8804
:10ED80000E2B27D8FB88DB08BB81FB8803F0070329
:10ED9000012202FA03F3FB72FB7ADB43BB7200F041
:10EDA00073F9BB890F4AD25CFB7A1340DBB2002BAC
:10EDB0000BD0BB89BA890B49895CBA7A0A40D1B2B7
:10EDC000084AD1540123FB7301E00023FB7300F0D8
:10EDD0006BF901E00023FB73FB7B18461037BD463F
:10EDE00080BD00BF1000002080B584B000AF034696
:10EDF000FB80FB880E2B16D8FB88DB08FB81FB8889
:10EE000003F00703012202FA03F37B7300F03CF9DD
:10EE1000FB89FA890549895C7A7B0A43D1B2034AA6
:10EE2000D15400F041F91037BD4680BD10000020DC
:10EE300080B582B000AF2D4B1B781A462C4B53F88F
:10EE400022202A4B1B782B495B000B445B78194628
:10EE50000B465B000B449B0013447B607B681B6884
:10EE600098470346FB70FB78002B22D07B685B68D9
:10EE700098477B685B7AFF2B0AD01C4B1B7818469F
:10EE80007B68597A1B4A430013440A465A700DE0C6
:10EE9000164B1B781A46174B002103F81210134B20
:10EEA0001B78144A5B00134400225A7000237B60D5
:10EEB00015E07B681B7AFF2B0FD00C4B1B781A4692
:10EEC0000B4B53F822207B681B7A19460B465B00DC
:10EED0000B449B0013447B6001E000237B607B6854
:10EEE000002BBBD10837BD4680BD00BF8E1500206A
:10EEF000CCB903001400002080B483B000AF00231D
:10EF0000FB710DE0FB790A4A002102F81310FB792E
:10EF1000074A5B00134400225A70FB790133FB71EE
:10EF2000FB79102BEED90C37BD465DF8047B70479A
:10EF30001400002080B483B000AF0346FB71FB795E
:10EF4000102B0AD8FB79074A012102F81310FB792C
:10EF5000044A5B00134400225A700C37BD465DF82A
:10EF6000047B70471400002080B483B000AF0346D8
:10EF7000FB71FB79102B04D8FB79044A002102F8BD
:10EF800013100C37BD465DF8047B70471400002059
:10EF900080B485B000AF0346FB710023FB73FB799F
:10EFA000102B04D8FB79054A12F81330FB73FB7B56
:10EFB00018461437BD465DF8047B704714000020E6
:10EFC00080B400AF01231846BD465DF8047B70474E
:10EFD00080B400AFBD465DF8047B704780B584B057
:10EFE00000AF03460A46FB711346BB71114B1B78F9
:10EFF000FB73104AFB79137011E00E4B1B781A4615
:10F000000D4B13F81230012B03D1FFF711FF00F065
:10F0100079F8084B1B780133DAB2064B1A70054BAE
:10F020001B78BA799A42E8D2024AFB7B13701037F8
:10F03000BD4680BD8E1500201400002080B582B032
:10F0400000AF786000F020F8054B1A687B68134326
:10F05000034A136000F028F80837BD4680BD00BFA2
:10F060003800002080B483B000AF78607B68DA435A
:10F07000044B1B681340034A13600C37BD465DF810
:10F08000047B70473800002080B582B000AF01F0EB
:10F0900017FB0346FB7172B6024AFB7913700837FF
:10F0A000BD4680BD4100002080B400AF62B6044B75
:10F0B0001A78034B1A70BD465DF8047B704700BF99
:10F0C0004100002080B500AF094B00221A70094BA7
:10F0D00000221A60084B094A1A6002F06BFA62B605
:10F0E00000F010F8064B1B68984700F0EBFCF7E7C0
:10F0F00040000020380000203C000020FFFF0700F7
:10F100007CB9030080B584B000AF3FE0244B1B689E
:10F110007B601323FB734FF48023BB6005E0FB7B14
:10F12000013BFB73BB685B08BB601E4B1A68BB6886
:10F130001340002BF3D0FFF7A7FF1A4B1A68BB68E8
:10F14000D31A184A1360FFF7AFFFBB685B00BB60C0
:10F15000BB68013BBB60BB68DB43114A1360FB7BB0
:10F16000114A52F8233098470D4A7B6813600F4BC1
:10F170001B780133DAB20D4B1A700C4B1B78002B45
:10F1800004D00A4B00221A7016F016FF054B1A68BD
:10F19000034B1B681340002BB8D11037BD4680BD10
:10F1A0003C000020380000207CB903004200002011
:10F1B00080B500AFFFF7A0FEFFF7D2FD00F008FA20
:10F1C000FFF7FEFC80BD00BF80B500AF0BF010FF65
:10F1D00080BD00BF80B500AF0BF0ACFE80BD00BFAE
:10F1E00080B500AF0AF02CFD80BD00BF80B400AF39
:10F1F000BD465DF8047B704780B500AF12F0E8FFB4
:10F2000080BD00BF80B500AF12F0D6FF80BD00BF4B
:10F2100080B500AF0BF074FF80BD00BF80B400AFBD
:10F22000BD465DF8047B704780B500AF0BF084FAF3
:10F2300080BD00BF80B500AF0BF0B0FA80BD00BF4D
:10F2400080B500AF08F026F980BD00BF80B500AFE3
:10F2500016F0F2FD12F02CFD11F052F980BD00BF46
:10F2600080B500AF16F012FE16F06AFD12F026FD12
:10F2700011F04EF980BD00BF80B500AF02F052F929
:10F2800080BD00BF80B500AF02F05EF980BD00BF59
:10F2900080B500AF10F0DCFE0BF082FE0AF080FEBD
:10F2A0000AF094FC0AF056FB09F024F808F04AFC36
:10F2B00008F002F980BD00BF80B500AF10F0C2FEBB
:10F2C0000BF068FE0AF07EFE0AF09AFC0AF048FB9A
:10F2D00009F016F808F03CFC08F0FEF880BD00BF0D
:10F2E00080B500AF13F00EF880BD00BF80B500AF51
:10F2F00013F018F880BD00BF80B500AF12F0F2FF28
:10F3000080BD00BF80B500AF13F02AF880BD00BFFC
:10F3100080B400AFBD465DF8047B704780B500AF98
:10F3200013F03CF880BD00BF80B400AFBD465DF86F
:10F33000047B704780B500AF13F036F880BD00BF86
:10F3400080B400AFBD465DF8047B704780B500AF68
:10F3500016F01EFD16F0ECFC15F02EFB13F00EFA65
:10F3600012F052FC11F07EF911F0E0F810F0FAFE04
:10F3700010F0F0FE10F01AF90FF064FF0FF014FC1B
:10F380000FF09CFA0EF01EFC0EF052F80DF0C0FECD
:10F390000DF01EFE0DF060FD80BD00BF80B500AF1A
:10F3A0000BF058FE0AF0B0FF08F05EFA07F002FB1F
:10F3B00005F054FA02F00AFC80BD00BF80B500AF32
:10F3C0000EF07CFB80BD00BF80B500AF16F0B8FC2E
:10F3D00012F032FC11F062F810F040FE0EF092FBD9
:10F3E0000DF00EFE05F068FA02F0BAFA80BD00BF1B
:10F3F00080B500AF16F014FD16F0A2FC15F0C4FFA6
:10F4000015F084FC12F01EFC11F096F811F022F8B1
:10F4100010F02EFF10F00EF910F014FE10F082FC28
:10F420000EF076FB0DF0ECFD0DF026FD80BD00BF6B
:10F4300080B500AF0BF0E2FD0AF0FEFF08F034FAF1
:10F4400007F0B2FA06F0D2FF05F03EFA02F0C4FB74
:10F4500002F018FA80BD00BF80B500AF0BF0D8FDF8
:10F460000AF0F0FF08F030FA07F0AAFA06F0CAFF37
:10F4700005F076FA02F0B6FB02F018FA80BD00BF84
:10F4800080B500AF16F0D2FC16F060FC12F0F6FB6F
:10F4900011F058F810F0F6FF10F0F6FE10F0D6F864
:10F4A0000EF016FB0EF03EFB0DF0BCFD0DF0ECFC7B
:10F4B00080BD00BF80B500AF0EF0EEFA80BD00BF8A
:10F4C00080B500AF13F0AEFA12F0ECFB11F000F8CB
:10F4D0000FF014FA0DF004FE80BD00BF80B500AF40
:10F4E00012F0DAFB10F084FE0DF0EEFD0AF0BCFF26
:10F4F00005F01CFA80BD00BF80B500AF15F0FAFB27
:10F5000010F0AAFE80BD00BF80B500AF10F0ECFF88
:10F5100080BD00BF80B500AF13F0CAFA80BD00BF48
:10F5200080B500AF13F0D2FA80BD00BF80B500AF48
:10F5300011F01EF980BD00BF80B500AF0BF052FD89
:10F5400080BD00BF80B500AF0BF046FD80BD00BFA1
:10F5500080B500AF0BF0EEFC80BD00BF80B500AF02
:10F560000BF0E8FC80BD00BF80B582B000AF034661
:10F57000FB71FB792E2B04D8FB79034A52F8233018
:10F5800098470837BD4680BDC0B8030080B500AFBE
:10F5900000200A21FFF722FD80BD00BF80B485B0A6
:10F5A00000AF0346FB710023FB7305E0FB7B0133D7
:10F5B000FB73FB795B08FB71FB7903F00103002B04
:10F5C000F4D0FB7B18461437BD465DF8047B7047CA
:10F5D00080B483B000AF0B4B00221A700023FB7184
:10F5E00007E0FB79084A002142F82310FB79013338
:10F5F000FB71FB79072BF4D90C37BD465DF8047B12
:10F60000704700BF430000204800002080B500AFD5
:10F61000012000F001F880BD80B582B000AF034644
:10F62000FB710C4AFB7913700A4B1B785B42DAB210
:10F63000094B1B781340DAB2074B1A70FB795B0059
:10F64000002006491A46012300F06EF90837BD462E
:10F6500080BD00BF440000204300002019F70100D6
:10F6600080B500AF002000F089F980BD80B584B07E
:10F6700000AF78600B46FB707B68002B1AD0FB78DC
:10F68000002B17D0FB781846FFF788FF0346FB7363
:10F690007B68FA781A71FFF7F7FCFB7BFA7B074966
:10F6A00051F822107A6812680A43044941F823206D
:10F6B000FFF7FAFC1037BD4680BD00BF48000020B0
:10F6C00080B584B000AF78607B68002B1FD07B686A
:10F6D0001B79002B1BD07B681B791846FFF75EFF58
:10F6E0000346FB73FFF7D0FCFB7BFA7B094951F81B
:10F6F00022107A681268D2430A40064941F8232052
:10F700007B681B681846FFF7ADFCFFF7CDFC103790
:10F71000BD4680BD4800002080B582B000AF0E4BD2
:10F720001A780E4B1B781344DAB20C4B1A700B4B41
:10F730001B78002B0DD0094B1B781846FFF72EFFC6
:10F740000346FB71FB79064A52F823301846FFF74F
:10F7500075FC0837BD4680BD4400002043000020F2
:10F760004800002080B487B000AFF860B9607A60CC
:10F770007B683B6100237B6111E0FA687B6913447D
:10F780001B781A463B695340DBB20A4A52F82320E1
:10F790003B691B0A53403B617B6901337B617A699A
:10F7A000BB689A42E9D33B6918461C37BD465DF8F1
:10F7B000047B704710BA030080B487B000AFF860D4
:10F7C000B9601346FB80FB887B8200237B6117E0D6
:10F7D0007B8A1B0299B27B8A1B0A9BB21846FB6884
:10F7E0005A1CFA601B784340DBB20B4A32F81330E4
:10F7F0009BB20A4653409BB27B827B6901337B619B
:10F800007A69BB689A42E3D37B8A18461C37BD46A7
:10F810005DF8047B704700BF10BE030080B582B066
:10F8200000AF2E4B1B6801332C4A136072B60023C5
:10F83000FB7126E0FB792A4A52F82330002B1DD0B9
:10F84000FB79274A52F82320013A254941F8232021
:10F85000FB79234A52F82330002B0FD1FB79042B7C
:10F8600007D8FB79FA791F4951F822201C4941F841
:10F870002320FB791C4A52F823309847FB79013347
:10F88000FB71FB79042BD5D9184B1B8801339AB235
:10F89000164B1A80154B1B88B3F5487F07D9134BBD
:10F8A00000221A80124B1B680133114A13600B4B64
:10F8B0001B6803F00103002B01D111F0EFFD00F0F4
:10F8C000C7FE064B1B6803F00303002B01D103F0B6
:10F8D0008FF862B60837BD4680BD00BF9015002086
:10F8E000680000207C00002010C00300940000206D
:10F8F0009000002080B500AF16F09AFD80BD00BFDB
:10F9000080B500AF0648002114221BF096FF054B7E
:10F9100000221A6016F0CCFDFFF7ECFF80BD00BF9F
:10F92000680000209015002080B485B000AFB96059
:10F930007A601A460346FB731346BB7372B6BB7BF1
:10F94000002B05D0FB7B0B497A6841F8232004E0AB
:10F95000FB7B084A002142F82310FB7B7A680132C6
:10F96000054941F8232062B61437BD465DF8047B93
:10F97000704700BF7C0000206800002080B485B084
:10F9800000AF0346FB7172B6FB79084A52F8233088
:10F99000FB60FB79054A002142F8231062B6FB6840
:10F9A00018461437BD465DF8047B70476800002098
:10F9B00080B582B000AF0346FB71FB79012B01D00B
:10F9C000022B02E016F03AFD00BF0837BD4680BDAD
:10F9D00080B400AFBD465DF8047B704780B500AFD2
:10F9E00016F06EFD16F000FC80BD00BF80B400AFC5
:10F9F000BD465DF8047B704780B582B000AF002340
:10FA0000FB7172B60C20FFF7AFFD16F01DFD16F06E
:10FA100093FD00BF00BF00BF00BF00BF00BF00BF1D
:10FA200000BF00BF00BF00BF00BF00BF00BF00BFDE
:10FA300000BF00BF00BF00BF00BF00BF00BF00BFCE
:10FA400000BF0B20FFF796F90346FB71FB79002BF3
:10FA500018D100BF00BF00BF00BF00BF00BF00BF84
:10FA600000BF00BF00BF00BF00BF00BF00BF00BF9E
:10FA700000BF00BF00BF00BF00BF00BF00BF00BF8E
:10FA800000BF01E062B600BF16F05EFC16F090FD0C
:10FA900016F0CEFC0D20FFF767FD0837BD4680BD90
:10FAA00080B400AFBD465DF8047B704780B400AF02
:10FAB000BD465DF8047B704780B500AF16F086FD4B
:10FAC00080BD00BF80B500AF16F03EFC80BD00BF1A
:10FAD00080B500AFFFF782FFFFF7F4FA80BD00BFEB
:10FAE00080B500AF16F06AFD0246014B1A6080BD7A
:10FAF0009800002080B483B000AF78607B68002B52
:10FB000021D07B681B68002B1DD07B681B68104AC6
:10FB10001268D2B21A707B681B6801330C4A1268F3
:10FB2000120AD2B21A707B681B680233084A126844
:10FB3000120CD2B21A707B681B680333044A126835
:10FB4000120ED2B21A700C37BD465DF8047B7047B6
:10FB50009800002080B500AF16F070FD014B002228
:10FB60001A8080BDE000002080B500AF16F034FDA3
:10FB7000024B1B68014A136080BD00BFDC000020FF
:10FB800080B483B000AF786039607B68222B00F2CC
:10FB9000B38101A252F823F025FC010031FC0100E1
:10FBA0003DFC010049FC010055FC010063FC010023
:10FBB00071FC01007FFC01008DFC010099FC01003B
:10FBC000A5FC0100B1FC0100BDFC0100CBFC010063
:10FBD000D9FC0100E7FC0100F9FE0100F9FE01007B
:10FBE000F9FE0100F5FC010015FD010035FD0100E5
:10FBF00055FD010075FD010095FD0100B5FD0100F9
:10FC0000D5FD0100F5FD010015FE010035FE0100E6
:10FC100055FE010079FE010099FE0100B9FE0100C8
:10FC2000D9FE01003B681B68924AD2791A7064E1E0
:10FC30003B681B688F4AD27B1A705EE13B681B6889
:10FC40008C4AD27D1A7058E13B681B68894AD27F82
:10FC50001A7052E13B681B68864A92F827201A7096
:10FC60004BE13B681B68834A92F82F201A7044E1ED
:10FC70003B681B687F4A92F837201A703DE13B6869
:10FC80001B687C4A92F83F201A7036E13B681B687B
:10FC9000784A92791A7030E13B681B68754A927B0A
:10FCA0001A702AE13B681B68724A927D1A7024E13F
:10FCB0003B681B686F4A927F1A701EE13B681B68A5
:10FCC0006C4A92F826201A7017E13B681B68694A53
:10FCD00092F82E201A7010E13B681B68654A92F872
:10FCE00036201A7009E13B681B68624A92F83E2090
:10FCF0001A7002E13B681B685E4A9288D2B21A70A1
:10FD00003B681B6801335B4A9288120A92B2D2B2F6
:10FD10001A70F2E03B681B68564A9289D2B21A7098
:10FD20003B681B680133534A9289120A92B2D2B2DD
:10FD30001A70E2E03B681B684E4A928AD2B21A708F
:10FD40003B681B6801334B4A928A120A92B2D2B2C4
:10FD50001A70D2E03B681B68464A928BD2B21A7086
:10FD60003B681B680133434A928B120A92B2D2B2AB
:10FD70001A70C2E03B681B683E4A928CD2B21A707D
:10FD80003B681B6801333B4A928C120A92B2D2B292
:10FD90001A70B2E03B681B68364A928DD2B21A7074
:10FDA0003B681B680133334A928D120A92B2D2B279
:10FDB0001A70A2E03B681B682E4A928ED2B21A706B
:10FDC0003B681B6801332B4A928E120A92B2D2B260
:10FDD0001A7092E03B681B68264A928FD2B21A7062
:10FDE0003B681B680133234A928F120A92B2D2B247
:10FDF0001A7082E03B681B681E4A5288D2B21A70A1
:10FE00003B681B6801331B4A5288120A92B2D2B275
:10FE10001A7072E03B681B68164A5289D2B21A7097
:10FE20003B681B680133134A5289120A92B2D2B25C
:10FE30001A7062E03B681B680E4A528AD2B21A708E
:10FE40003B681B6801330B4A528A120A92B2D2B243
:10FE50001A7052E03B681B68064A528BD2B21A7085
:10FE60003B681B680133034A528B120A92B2D2B22A
:10FE70001A7042E09C0000203B681B68214A528CAB
:10FE8000D2B21A703B681B6801331E4A528C120AA8
:10FE900092B2D2B21A7030E03B681B68194A528D98
:10FEA000D2B21A703B681B680133164A528D120A8F
:10FEB00092B2D2B21A7020E03B681B68114A528E8F
:10FEC000D2B21A703B681B6801330E4A528E120A76
:10FED00092B2D2B21A7010E03B681B68094A528F86
:10FEE000D2B21A703B681B680133064A528F120A5D
:10FEF00092B2D2B21A7000E000BF0C37BD465DF876
:10FF0000047B70479C00002080B582B000AF0346A0
:10FF1000FB71FB793E2B00F2DB8101A252F823F04A
:10FF20001D00020023000200D1020200290002008D
:10FF30002F000200350002003B00020045000200D5
:10FF40004F00020059000200630002006D00020031
:10FF500077000200810002008B0002009500020081
:10FF60009F000200A9000200B3000200BD000200D1
:10FF7000C7000200D1000200DB000200E500020021
:10FF8000EF000200F9000200030102000D0102006F
:10FF900017010200210102002B01020035010200BD
:10FFA0003F01020049010200530102005D0102000D
:10FFB0006701020075010200830102009101020045
:10FFC0009F010200B1010200C3010200D50102003D
:10FFD000E7010200F5010200030202001102020023
:10FFE0002502020037020200490202005B02020001
:10FFF0006D020200D10202007702020081020200BB
:020000022000DC
:100000008B020200950202009F020200A902020078
:10001000B3020200BD020200C7020200FFF79AFD10
:1000200057E1FFF7A1FD54E1FFF79EFD51E116F006
:10003000A7FD4EE116F0CAFD4BE10020072116F0A6
:10004000F1FD46E10120042116F0ECFD41E1012023
:10005000052116F0E7FD3CE10220012116F0E2FD4A
:1000600037E10220022116F0DDFD32E102200321FA
:1000700016F0D8FD2DE10220042116F0D3FD28E171
:100080000220052116F0CEFD23E10320002116F009
:10009000C9FD1EE10320012116F0C4FD19E1032072
:1000A000022116F0BFFD14E10320032116F0BAFD72
:1000B0000FE10320042116F0B5FD0AE1032005211C
:1000C00016F0B0FD05E10320072116F0ABFD00E1BD
:1000D0000020072116F0F6FDFBE00120042116F0B8
:1000E000F1FDF6E00120052116F0ECFDF1E0022023
:1000F000012116F0E7FDECE00220022116F0E2FDFE
:10010000E7E00220032116F0DDFDE2E002200421F9
:1001100016F0D8FDDDE00220052116F0D3FDD8E071
:100120000320002116F0CEFDD3E00320012116F0BC
:10013000C9FDCEE00320022116F0C4FDC9E0032072
:10014000032116F0BFFDC4E00320042116F0BAFD20
:10015000BFE00320052116F0B5FDBAE0032007211A
:1001600016F0B0FDB5E05C4B01229A715A4B0122AA
:10017000DA71AEE0584B01229A73574B0122DA73C1
:10018000A7E0554B01229A75534B0122DA75A0E086
:10019000514B01229A77504B0122DA7799E04E4B6E
:1001A000012283F826204C4B012283F8272090E07F
:1001B000494B012283F82E20474B012283F82F2040
:1001C00087E0454B012283F83620434B012283F818
:1001D00037207EE0404B012283F83E203E4B012237
:1001E00083F83F2075E03C4B00229A713A4B002285
:1001F000DA716EE0384B00229A73374B0022DA73C3
:1002000067E0354B00229A75334B0022DA7560E0C7
:10021000314B00229A77304B00221A832E4B00225A
:10022000DA7756E02C4B002283F826202A4B002256
:1002300083F827204DE0284B002283F82E20264B00
:10024000002283F82F2044E0234B002283F836203D
:10025000214B002283F837203BE01F4B002283F81C
:100260003E201D4B002283F83F2032E00020052174
:1002700016F0D8FC2DE00020052116F023FD28E023
:100280000020032116F0CEFC23E00020032116F00D
:1002900019FD1EE00220072116F0C4FC19E002201F
:1002A000072116F00FFD14E00320062116F0BAFC1A
:1002B0000FE00320062116F005FD0AE000200621CC
:1002C00016F0B0FC05E00020062116F0FBFC00E073
:1002D00000BF0837BD4680BD9C00002080B584B0BB
:1002E00000AF786039600023FB810023BB813B684D
:1002F0001B6802331B789BB21B029AB23B681B68D7
:1003000003331B789BB21344BB813B681B681B788B
:100310009BB21B029AB23B681B6801331B789BB2ED
:1003200013449AB2AD4B1A80AC4B1B88FB817B689F
:100330002F2B00F2848101A252F823F0FD0302006A
:100340000904020015040200210402002D04020029
:100350003B04020049040200570402006504020045
:1003600073040200810402008F0402009D04020055
:10037000AB040200B9040200C7040200D504020065
:10038000E3040200F1040200FF0402000905020078
:10039000130502001D0502002705020031050200B9
:1003A0003B050200450502004F0502005905020009
:1003B000630502006D050200770502008105020059
:1003C0008B050200950502009F050200A9050200A9
:1003D000B3050200BD050200C7050200D1050200F9
:1003E000E5050200EF050200F9050200070602001C
:1003F000150602002306020031060200BB89002018
:10040000194616F00FFB1BE1BB890120194616F0B7
:1004100009FB15E1BB890220194616F003FB0FE129
:10042000BB890320194616F0FDFA09E1FB8900207B
:1004300007211A4616F02EFA02E1FB890120042159
:100440001A4616F027FAFBE0FB89012005211A461F
:1004500016F020FAF4E0FB89022001211A4616F07A
:1004600019FAEDE0FB89022002211A4616F012FA71
:10047000E6E0FB89022003211A4616F00BFADFE0C2
:10048000FB89022004211A4616F004FAD8E0FB8901
:10049000022005211A4616F0FDF9D1E0FB89032060
:1004A00000211A4616F0F6F9CAE0FB890320012163
:1004B0001A4616F0EFF9C3E0FB89032002211A4621
:1004C00016F0E8F9BCE0FB89032003211A4616F078
:1004D000E1F9B5E0FB89032004211A4616F0DAF9A8
:1004E000AEE0FB89032005211A4616F0D3F9A7E0F8
:1004F000FB89032007211A4616F0CCF9A0E0374B00
:100500001A88374B9A809BE0344B1A88344B9A8177
:1005100096E0324B1A88324B9A8291E02F4B1A8820
:100520002F4B9A838CE02D4B1A882D4B9A8487E0B1
:100530002A4B1A882A4B9A8582E0284B1A88284B26
:100540009A867DE0254B1A88254B9A8778E0234BC5
:100550001A88234B5A8073E0204B1A88204B5A810B
:100560006EE01E4B1A881E4B5A8269E01B4B1A889C
:100570001B4B5A8364E0194B1A88194B5A845FE06D
:10058000164B1A88164B5A855AE0144B1A88144B8E
:100590005A8655E0114B1A88114B5A8750E00F4B81
:1005A0001A880F4B1A804BE00C4B1A880C4B1A819F
:1005B00046E00A4B1A880A4B1A8241E0074B1A8818
:1005C000074B1A833CE0054B1A88054B1A8437E029
:1005D000024B1A88024B1A8532E000BFE00000206F
:1005E0009C000020184B1A88184B1A8628E0164BDE
:1005F0001A88164B1A8723E0FB89002005211A462A
:1006000016F048F91CE0FB89002006211A4616F076
:1006100041F915E0FB89032006211A4616F03AF944
:100620000EE0FB89022007211A4616F033F907E095
:10063000FB89002003211A4616F02CF900E000BFC8
:100640001037BD4680BD00BFE00000209C000020A8
:1006500080B483B000AF0023FB7127E0FB79DB009F
:10066000164A13443B603B689B79012B1BD13B68C6
:100670001B8801339AB23B681A803B681A883B6832
:100680009B889A4206D33B6800221A803B6801226D
:10069000DA7108E03B681A883B685B889A4202D3AB
:1006A0003B680022DA71FB790133FB71FB79072B80
:1006B000D4D90C37BD465DF8047B70479C00002000
:1006C00080B483B000AF00233B600123FB713B6823
:1006D00003F0C003002B01D00023FB71FB79184607
:1006E0000C37BD465DF8047B704700BF80B582B013
:1006F00000AF0023FB7117F0BBFA0346FB71FB79D7
:10070000002B0CBF01230023DBB218460837BD467F
:1007100080BD00BF80B500AF024B00221A7017F0F9
:10072000EFF980BDE800002080B582B000AF7860AE
:1007300039600A4A7B681360084B19683B681A687D
:100740003B689B88084611461A4617F037FA044B57
:1007500001221A700837BD4680BD00BFE4000020AA
:10076000E800002080B584B000AF786039600023D5
:10077000FB730A4B00221A703B681A683B689B881F
:10078000786811461A4617F0C9F9082079680022DE
:100790000CF036FB1037BD4680BD00BFE8000020DE
:1007A00080B582B000AF0346FB71FB79012B04D00A
:1007B000022B08D0002B03D01AE017F049FA17E0FB
:1007C00017F04EFA14E00F4B1B78002B0FD0FFF7F9
:1007D0008DFF0346012B0AD10B4B1B6808201946DD
:1007E00000220CF023FB074B00221A70FFE700BF2A
:1007F000FB790820194600220CF0EAFA0837BD46BA
:1008000080BD00BFE8000020E400002080B400AFFD
:10081000BD465DF8047B704780B400AFBD465DF80F
:10082000047B704780B400AFBD465DF8047B704721
:1008300080B582B000AF0346FB71FB79013B082B0A
:100840001AD801A252F823F06D08020073080200C2
:10085000790802007908020079080200790802008C
:10086000790802007908020079080200FFF7D4FF36
:1008700003E0FFF7D7FF00E000BF0837BD4680BDAB
:1008800080B485B000AF78607B681B68FB6014376C
:10089000BD465DF8047B704780B483B000AF7860DC
:1008A000396000BF0C37BD465DF8047B704700BF60
:1008B00080B500AF17F026FA80BD00BF80B500AF4D
:1008C000FFF7F6FF012004210FF0F4FD80BD00BF0B
:1008D00080B500AF17F058FA014B01221A7080BDA5
:1008E000E900002080B584B000AF78607B681B68A9
:1008F000FB60634B1B78002B5FD1002017F094FA4C
:100900000346012B05D1FB681B7863F07F03DBB244
:1009100004E0FB681B7803F07F03DBB2FA68137016
:10092000042017F081FA0346002B05D1FB681B78E1
:1009300043F04003DBB204E0FB681B7823F0400384
:10094000DBB2FA681370032017F06EFA0346002B2F
:1009500005D1FB681B7843F02003DBB204E0FB68A1
:100960001B7823F02003DBB2FA681370022017F023
:100970005BFA0346002B05D1FB681B7843F010039C
:10098000DBB204E0FB681B7823F01003DBB2FA68EB
:100990001370052017F048FA0346002B05D1FB68B9
:1009A0001B7843F00803DBB204E0FB681B7823F0FC
:1009B0000803DBB2FA6813705EE0002017F034FA27
:1009C0000346012B05D1FB681B7863F07F03DBB284
:1009D00004E0FB681B7803F07F03DBB2FA68137056
:1009E000042017F021FA0346002B05D1FB681B7881
:1009F00043F04003DBB204E0FB681B7823F04003C4
:100A0000DBB2FA681370032017F00EFA0346002BCE
:100A100005D1FB681B7843F02003DBB204E0FB68E0
:100A20001B7823F02003DBB2FA681370022017F062
:100A3000FBF90346002B05D1FB681B7843F010033C
:100A4000DBB204E0FB681B7823F01003DBB2FA682A
:100A50001370052017F0E8F90346002B05D1FB6859
:100A60001B7843F00803DBB204E0FB681B7823F03B
:100A70000803DBB2FA6813701037BD4680BD00BFB3
:100A8000E900002080B584B000AF786039603B6831
:100A90001B68FB60684B1B78002B65D17B68DBB261
:100AA000082B00D05FE0002017F0BEF90346012BB1
:100AB00005D1FB681B7863F07F03DBB204E0FB68C1
:100AC0001B7803F07F03DBB2FA681370042017F081
:100AD000ABF90346002B05D1FB681B7843F04003BC
:100AE000DBB204E0FB681B7823F04003DBB2FA685A
:100AF0001370032017F098F90346002B05D1FB680B
:100B00001B7843F02003DBB204E0FB681B7823F082
:100B10002003DBB2FA681370022017F085F9034650
:100B2000002B05D1FB681B7843F01003DBB204E017
:100B3000FB681B7823F01003DBB2FA681370052002
:100B400017F072F90346002B05D1FB681B7843F0C0
:100B50000803DBB204E0FB681B7823F00803DBB278
:100B6000FA68137000BF64E07B68DBB2082B00D02A
:100B70005FE0002017F058F90346012B05D1FB6810
:100B80001B7863F07F03DBB204E0FB681B7803F0A3
:100B90007F03DBB2FA681370042017F045F90346AF
:100BA000002B05D1FB681B7843F04003DBB204E067
:100BB000FB681B7823F04003DBB2FA681370032054
:100BC00017F032F90346002B05D1FB681B7843F080
:100BD0002003DBB204E0FB681B7823F02003DBB2C8
:100BE000FA681370022017F01FF90346002B05D195
:100BF000FB681B7843F01003DBB204E0FB681B7852
:100C000023F01003DBB2FA681370052017F00CF91B
:100C10000346002B05D1FB681B7843F00803DBB2C9
:100C200004E0FB681B7823F00803DBB2FA6813705A
:100C300000BF1037BD4680BDE900002080B582B0FE
:100C400000AF0346FB71FB79022B0AD0032B0CD0BB
:100C5000012B00D012E00B4B00221A7017F052F853
:100C60000CE0084B01221A7008E0064B01221A70B2
:100C70000B20FEF77FF817F033F800BF0837BD46AA
:100C800080BD00BFE900002080B500AF0120FFF764
:100C9000D5FF80BD80B500AF0320FFF7CFFF80BD3B
:100CA00080B500AFFFF70AFE0B20FEF79DF880BD70
:100CB00080B483B000AF0023FB710023FB710CE014
:100CC000FB790A4A4FF0FF3142F82310FB79084ABA
:100CD0000121D154FB790133FB71FB79022BEFD950
:100CE0000C37BD465DF8047B704700BFEC00002068
:100CF000F800002080B586B000AFF860B9601346F8
:100D0000FB710023FB8200237B75FB790E4AD35CC9
:100D10007B75FB68002B00D013E07B7D184618F034
:100D20005FF80346FB82BB681B68FA8A120A92B21C
:100D3000D2B21A70BB681B680133FA8AD2B21A7039
:100D400000BF1837BD4680BD24C0030080B58AB0FF
:100D500000AF0346B9607A60FB73002387F8273041
:100D6000FB7B2F4AD35C87F82730002387F8263097
:100D700007F1140300221A60043300221A600433BE
:100D800000221A60043300221A6004337B681B6857
:100D90001B68BB617B681B6804331B68FB61BB6815
:100DA0001B0B002B0FD197F82730BA68C2F30A0249
:100DB0001C4941F82320BB68C3F30A037B6100236D
:100DC00087F820300AE097F827301649BA6841F8CA
:100DD0002320BB687B61012387F82030012387F83B
:100DE00021307B689B88DBB287F8223097F8272078
:100DF00007F114031046194617F024FF034687F83D
:100E0000263097F82630002B06D097F82730054A71
:100E10004FF0FF3142F823102837BD4680BD00BF98
:100E200024C00300EC00002080B584B000AF03466E
:100E30000A46FB711346BB710023FB73BB793C4A26
:100E4000D35CFB730023BB73FB79083B082B63D88F
:100E500001A252F823F000BF7D0E0200AD0E020089
:100E6000B70E0200190F0200D70E0200E10E0200B9
:100E7000EF0E0200FD0E02000B0F0200FB7B2D4A5D
:100E8000D35C012B08D1FB7B2A4A0021D154FB7B88
:100E9000184617F0F1FC40E0FB7B184617F0BAFF4C
:100EA000BB791846012113F095FC36E0FB7B184610
:100EB00017F0ECFD31E0FB7B184617F047FEFB7B9B
:100EC000002B07D10B20FDF755FF17F0D1F817F0D5
:100ED000ADF822E021E0FB7B184617F01BFD1CE07B
:100EE000FB7B18460021012217F042FD15E0FB7B39
:100EF00018460021002217F03BFD0EE0FB7B184650
:100F00000221012217F034FD07E0FB7B1846022185
:100F1000002217F02DFD00E000BFF979BA7BBB7904
:100F2000084611461A4613F07FFB1037BD4680BDB8
:100F300024C00300F800002080B586B000AF7860C0
:100F400007F110037A6852681A6007F1100304333E
:100F50007A6892681A600823BB8107F11003BB60AE
:100F60007B685B7B1A46064B53F832307A6811680F
:100F700007F108020846002198471837BD4680BD92
:100F800038DA030080B582B000AF78607B685B79A7
:100F90001A460F4B53F82230B3F1FF3F14D07B6851
:100FA0005A797B685B791946094B53F82130104612
:100FB0001946002212F082FF7B685B791946044BC8
:100FC0004FF0FF3243F821200837BD4680BD00BFF7
:100FD000EC00002080B582B000AF78607B685B7960
:100FE00018460221002217F0C3FC7B685B79184683
:100FF00017F090FC7B685B791846002113F0EAFB40
:101000000837BD4680BD00BF80B586B000AF7860B0
:1010100007F110037A6852681A6007F1100304336D
:101020007A6892681A600823BB8107F11003BB60DD
:101030007B685B7B1A46064B53F832307A6811683E
:1010400007F108020846002198471837BD4680BDC1
:1010500038DA030080B584B000AF78600023FB73FA
:101060007B685B791A46114B53F82230B3F1FF3F8E
:1010700019D07B685B791A460D4B9B5CFB737B68D0
:101080005B791A46094B53F82230FA7B1046194611
:10109000002212F013FF7B685B791946034B4FF077
:1010A000FF3243F821201037BD4680BDEC00002000
:1010B00028C0030080B584B000AF78600023FB73C4
:1010C0007B685B791A460B4B9B5CFB737B685B7997
:1010D00018460221002217F04BFC7B685B7918460A
:1010E00017F018FCFB7B1846002113F073FB103738
:1010F000BD4680BD28C0030080B586B000AF7860D3
:1011000007F110037A6852681A6007F1100304337C
:101110007A6892681A600823BB8107F11003BB60EC
:101120007B685B7B1A46064B53F832307A6811684D
:1011300007F108020846002198471837BD4680BDD0
:1011400038DA030080B584B000AF78600023FB7309
:101150007B685B791A46114B53F82230B3F1FF3F9D
:1011600019D07B685B791A460D4B9B5CFB737B68DF
:101170005B791A46094B53F82230FA7B1046194620
:10118000002212F09BFE7B685B791946034B4FF0FF
:10119000FF3243F821201037BD4680BDEC0000200F
:1011A00028C0030080B584B000AF78600023FB73D3
:1011B0007B685B791A460B4B9B5CFB737B685B79A6
:1011C00018460221002217F0D3FB7B685B79184692
:1011D00017F0A0FBFB7B1846002113F0FBFA103739
:1011E000BD4680BD28C0030080B582B000AF034675
:1011F000FB71FB791846032113F0ECFA0837BD4662
:1012000080BD00BF80B500AF0020FFF7EDFF0B20D1
:10121000FDF7EAFD16F050FF16F03CFF0F20FEF739
:10122000A3F980BD80B500AF18F054FB80BD00BFAE
:1012300098B500AF18F04AFA0346002B21D0234B93
:101240001B781C4618F062FA03461A46204B23F816
:1012500014201E4B1B780133DAB21C4B1A701B4B47
:101260001B780D2B05D9194B00221A70194B01223E
:101270001A70164B1B781A46174B9B5C184618F0D1
:1012800069FA18F033FA0346002B1ED0134B1B7873
:101290001C4618F04DFA03461A46114B23F8142049
:1012A0000E4B1B780133DAB20C4B1A700B4B1B78C8
:1012B0000A2B02D9094B00221A70084B1B781A46D8
:1012C000084B9B5C184618F063FA98BD3201002069
:1012D00000010020FC0000202CC00300330100208E
:1012E0001C0100203CC0030080B485B000AF7860D2
:1012F0000023FB730023FB730BE0FB7B5B007A682E
:101300001344FA7B104931F812201A80FB7B013319
:10131000FB73FB7B0D2BF0D90023FB730CE0FB7BF5
:101320000E335B007A681344FA7B084931F81220C7
:101330001A80FB7B0133FB73FB7B0A2BEFD914373D
:10134000BD465DF8047B7047000100201C010020B1
:1013500080B582B000AF786039607B68012B02D025
:10136000022B09D00EE03B681B68084A12781A70FD
:10137000064B00221A7005E03B681B681846FFF711
:10138000B3FF00BF0837BD4680BD00BFFC00002092
:1013900080B582B000AF0346FB71FB79013B052BA2
:1013A0001DD801A252F823F0C1130200C713020096
:1013B000DF130200CD130200D3130200D913020081
:1013C00018F0AAFA0CE018F0D3FA09E018F0A4FA21
:1013D00006E018F0CDFA03E0FFF72AFF00E000BFB7
:1013E0000837BD4680BD00BF80B582B000AF7860D1
:1013F0007B68002B1AD07B681B68002B16D07B689B
:101400001B681A780B4B1A700A4B1B7803F0070302
:10141000DBB2184618F0CEFA064B1B78DB08DBB2BD
:1014200003F00103DBB2184618F0EAFA0837BD46AC
:1014300080BD00BFFB00002080B500AF1D20FEF77F
:1014400093F880BD80B500AF1E20FEF78DF880BDFB
:1014500080B500AF1F20FEF787F880BD80B500AFD4
:101460002020FEF781F880BD80B500AF2120FEF777
:101470007BF82220FEF778F880BD00BF80B500AF72
:101480000920FDF777FC0346184680BD80B500AF04
:101490000A20FDF76FFC0346184680BD80B582B078
:1014A00000AF2320FEF760F80C20FDF763FC034635
:1014B000FB71FB79002B0CBF01230023DBB2184624
:1014C0000837BD4680BD00BF80B582B000AF0023A5
:1014D000FB712420FEF748F80D20FDF74BFC034676
:1014E000FB71FB79002B0CBF01230023DBB21846F4
:1014F0000837BD4680BD00BF80B582B000AF252053
:10150000FEF732F80E20FDF735FC0346FB71FB7940
:10151000002B0CBF01230023DBB218460837BD4661
:1015200080BD00BF80B500AF064B1B78002B04D0F8
:101530000FF0BCF8034B00221A700920FDF754FC91
:1015400080BD00BF3401002080B500AF064B1B7882
:10155000002B04D00FF0AAF8034B00221A700A20C7
:10156000FDF742FC80BD00BF3401002080B500AF14
:101570000920FDF7FFFB044B01221A700FF0B2F8AF
:101580002720FDF7F1FF80BD3401002080B500AFBA
:1015900003483221FDF768FB0346184680BD00BFB3
:1015A0003601002080B500AF0148FDF725FB80BD66
:1015B0003601002080B500AF0BF0B6FA0020FDF731
:1015C000D3FF1B20FDF7D0FF1C20FDF7CDFFFEF75A
:1015D0001DF80FF06BF8054B00221A701020FDF774
:1015E000A9FC2620FDF7C0FF80BD00BF340100200C
:1015F00080B582B000AF0023FB711448FDF71EFBDD
:101600000346002B02D11148FDF7F6FA13F01EFC39
:101610000346002B06D10D48DC21FDF725FB0346D0
:10162000002B0BD00123FB710848FDF7F7FA0A20C5
:10163000FDF7DAFB012013F023FC01E00023FB712E
:10164000FB7918460837BD4680BD00BF3801002031
:1016500080B400AFBD465DF8047B704780B400AF36
:101660000F4B1B6801330E4A13600D4B1B68322B66
:101670000DD0322B02D8192B0BD00DE04B2B0AD0FA
:10168000642B00D008E0064B00221A6004E000BF83
:1016900002E000BF00E000BFBD465DF8047B70477C
:1016A0004801002080B582B000AF4FF400733B606A
:1016B0003B4618460421FDF7D9FF3B461846FDF787
:1016C000FFFF0837BD4680BD80B400AFBD465DF862
:1016D000047B704780B500AFFFF7F6FFFFF7E2FF2E
:1016E00080BD00BF80B400AFBD465DF8047B70478D
:1016F00080B400AF084B1B680133074A1360064BE8
:101700001B68FA2B00D003E0034B00221A6000BFD5
:10171000BD465DF8047B70474401002080B483B06F
:1017200000AF00237B6000233B60124B1B6801333A
:10173000104A13600F4B1B680F4AA2FB0323DB0800
:101740007B600C4B1A680C4BA3FB0213D9080B46A9
:101750009B000B4499000B44D31A3B607B68B3F5A4
:10176000615F02D3054B01221A700C37BD465DF84C
:10177000047B70475C0100201F85EB516001002055
:1017800080B500AFFFF76AFFFFF762FFFFF7B0FF1A
:10179000FFF7C4FF80BD00BF80B582B000AF00235B
:1017A0003B710023FB710023FB700023BB710023FE
:1017B0007B710023BB7000233B711C4B1B681C4AD0
:1017C000934201D10123FB710123FB7010F0F2FD64
:1017D0000346012B01D10123BB71164B1B68FA2B69
:1017E00001D901237B713B79002B0DD0FB79002BB4
:1017F0000AD0FB78002B07D0BB79002B04D07B7973
:10180000002B01D0012300E00023012B03D10A4B60
:1018100001221A7002E0084B00221A70064B1B7856
:10182000BB70BB7818460837BD4680BD500100200C
:101830005A5AAA553C0100204C01002080B400AF48
:101840000A4B00221A600A4B00221A70094B002230
:101850001A60094B00221A70084B00221A60084BCC
:1018600000221A60BD465DF8047B70473C010020F1
:1018700040010020480100204C01002044010020CC
:101880005C01002080B500AFFFF7D8FF054B0022B8
:101890001A60054B4FF480421A6003480821FDF797
:1018A000E5FE80BD500100205401002080B400AF4F
:1018B000BD465DF8047B704780B500AF254B1B68C3
:1018C0000133244A1360244B1B78042B3FD801A218
:1018D00052F823F0E918020015190200211902003C
:1018E0002D19020045190200FFF756FF0346002B91
:1018F00003D0194B01221A700BE0164B1B6840F203
:10190000DB52934205D91548FDF7DAFE124B00224F
:101910001A701DE0FFF7DEFE0F4B02221A7017E06F
:10192000FFF7E0FE0C4B03221A7011E0FFF734FFC3
:101930000346002B02D0FFF723FF09E0064B0422E9
:101940001A7005E00EF00EFFFEF7B6F800E000BFDB
:1019500080BD00BF3C010020400100205401002058
:1019600080B582B000AF0EF0E9FE78607B6803F0CE
:101970000103002B09D0244B1B78FB70FB78FF2B55
:1019800036D0FB780133FB7032E07B6803F4805380
:10199000002B04D17B6803F40063002B0AD01B4B9F
:1019A0001B78FB70FB78FF2B03D0FB780133FB70B7
:1019B0001EE01DE07B6803F48013002B09D0144B5C
:1019C0001B78FB70FB78FF2B12D0FB780133FB7088
:1019D0000EE07B6803F07063B3F1706F08D10D4BBC
:1019E0001B78FB70FB78FF2B02D0FB780133FB7078
:1019F000094B1B78FB70FB78FF2B02D0FB7801337F
:101A0000FB700837BD4680BD8B2300208C2300204F
:101A10008D2300208E2300208A23002080B400AF75
:101A2000034B03221A70BD465DF8047B704700BF6C
:101A30006801002080B483B000AF104B7B60104B76
:101A400000221A700F4B4FF0FF321A607B681B6840
:101A50000D4A13607B685B681B0A0C4A13607B6845
:101A60005B68DBB20A4A1360084B1B680133074A04
:101A700013600C37BD465DF8047B70470800A0007A
:101A80006801002070010020740100206401002022
:101A90006C01002080B483B000AF0123FB710F4BB9
:101AA0003B603B681B680E4A934202D00023FB71E7
:101AB0000BE03B685B680B4A934206D13B689B682E
:101AC000094A934201D10023FB710123FB71FB7989
:101AD00018460C37BD465DF8047B70470800A0002F
:101AE000F000A00000FF0B007856341280B582B0E1
:101AF00000AF00237B60174B1B68012B03D94FF409
:101B000080737B6006E0134B1B68012B02D1124BE4
:101B10001B687B60114B1B681A46114B1B681046F3
:101B200079681A46FDF71EFE02460D4B1A600B4BF4
:101B30001A687B681344094A1360064B1B68002B24
:101B400004D0044B1B68013B024A13600837BD46B2
:101B500080BD00BF640100206C01002074010020E2
:101B60007001002080B483B000AF0023FB71064BEE
:101B70001B68002B01D00123FB71FB7918460C3741
:101B8000BD465DF8047B70476401002080B582B0DB
:101B900000AF0B4B7B607B689A680A4B1B689A42CC
:101BA00003D1094B01221A7006E0074B02221A707A
:101BB0000EF0D8FDFDF780FF0837BD4680BD00BFA1
:101BC0000800A000700100206801002080B400AF70
:101BD000BD465DF8047B704780B400AFBD465DF83C
:101BE000047B704780B400AFBD465DF8047B70474E
:101BF00080B483B000AF40F698037B6000BF7B6881
:101C00005A1E7A60002BFAD10C37BD465DF8047B72
:101C1000704700BF80B582B000AF0346FB71FB790F
:101C2000002B13D10D4B93F88031002B12D1FFF70D
:101C3000DFFF1B20012116F0CFF8084B1422A3F878
:101C40008221064B012283F8802103E01B20002122
:101C500016F0C2F80837BD4680BD00BF0C17002043
:101C600080B582B000AF3F4B5B780E2B74D801A2D9
:101C700052F823F0B11C0200BD1C0200C91C020076
:101C8000D51C0200E11C0200ED1C0200F91C020040
:101C9000051D0200111D02001D1D0200291D02006C
:101CA000351D0200411D02004D1D0200591D02009C
:101CB0000B2013F09DFF0346FB714EE0052013F04F
:101CC00097FF0346FB7148E0012013F091FF0346A4
:101CD000FB7142E0032013F08BFF0346FB713CE0F5
:101CE000062013F085FF0346FB7136E0002013F059
:101CF0007FFF0346FB7130E0082013F079FF0346B5
:101D0000FB712AE0092013F073FF0346FB7124E006
:101D10000D2013F06DFF0346FB711EE0022013F04F
:101D200067FF0346FB7118E0042013F061FF0346D0
:101D3000FB7112E0072013F05BFF0346FB710CE020
:101D40000A2013F055FF0346FB7106E00C2013F048
:101D50004FFF0346FB7100E000BFFB7918460837D0
:101D6000BD4680BD6019002080B400AF054B1B78D4
:101D7000012B01D1012300E000231846BD465DF888
:101D8000047B70477801002080B584B000AF034623
:101D90000A46FB711346BB710023FB730023BB7320
:101DA00000237B73AE4BDB79FB73AD4B1B79BB73AD
:101DB000FFF756FF03467B73AA4B1B78002B03D01B
:101DC000A94B1B78002B03D0A84B1B78002B05D107
:101DD000A64B01221A70A64B01221A70A54B93F84C
:101DE0008031012B07D1A34BB3F88231002B02D1F4
:101DF0000120FFF70FFF9C4B1B78002B40F0D08099
:101E00009D4B1B78002B40F0CB807B7B012B5AD164
:101E10009A4B00221A70FA7BFB7B9949DB000B443A
:101E20005978974B03F83210FB7B954ADB0013443B
:101E300000225A70BA7BBB7B9149DB000B44597876
:101E40008F4B03F83210BB7B8D4ADB00134400221A
:101E50005A70834BDB7919468A4A0B465B000B4468
:101E600013449B781846002115F0B6FF7C4BDB79B4
:101E7000834ADB00134400229A70794B1B79194680
:101E8000804A0B465B000B4413449B7818460021A4
:101E900015F0A2FF724B1B79794ADB001344002234
:101EA0009A70734B00221A70734B00221A70714B98
:101EB000002283F870216F4B002283F860210020FC
:101EC000FFF7A8FE60E06D4B01221A70FB796C4AA7
:101ED000DB0013441B79052B11D1FA7969491346AC
:101EE0005B0013440B449B781846002115F074FFE7
:101EF000FB79634ADB00134400229A7044E0FB79CB
:101F00005F4ADB0013441B79012B11D1FA795D493B
:101F100013465B0013440B449B781846002115F0D0
:101F20005BFFFB79564ADB00134400229A702BE0DA
:101F30004F4B1B78012B27D1494BDB791946514A6E
:101F40000B465B000B4413449B781846002115F0A8
:101F500043FF434BDB794A4ADB00134400229A706B
:101F60003F4B1B791946474A0B465B000B44134411
:101F70009B781846012115F02FFF394B1B79404AF9
:101F8000DB00134401229A703B4B00221A70394B3C
:101F9000002283F87021374B002283F86021AAE2E7
:101FA000314B1B78012B40F0AA80FA7BFB7B344934
:101FB000DB000B445978324B03F83210FB7B304A7C
:101FC000DB00134401225A70FA7BBB7B2C49DB00F7
:101FD0000B4459782A4B03F83210FB7B284ADB006C
:101FE000134400225A701E4BDB79254ADB00134450
:101FF0001B79052B07D01A4BDB79214ADB001344F0
:102000001B79012B40D1164BDB7919461D4A0B4633
:102010005B000B4413449B781846002115F0DCFE4E
:102020000F4BDB79164ADB00134400229A700C4BED
:102030001B791946134A0B465B000B4413449B78EB
:102040001846002115F0C8FE054B1B790C4ADB0031
:10205000134400229A700020FFF7DCFD43E000BF2C
:1020600054190020951500209415002079010020B6
:102070007A0100200C1700207B010020780100204D
:10208000AC180020F8C803000120FFF7C3FDB64BD1
:10209000002283F88021B54BDB791946B44A0B4600
:1020A0005B000B4413449B781846012115F094FE05
:1020B000AE4BDB79AF4ADB00134401229A70AB4B85
:1020C0001B791946AA4A0B465B000B4413449B78C4
:1020D0001846002115F080FEA44B1B79A54ADB00B1
:1020E000134400229A70A44B00221A709E4B0022C7
:1020F00083F870219C4B002283F86021FBE1FA7B7E
:10210000FB7B9C49DB000B4459789A4B03F8321057
:10211000FB7B984ADB00134400225A70FA7BBB7B9E
:102120009449DB000B445978924B03F83210FB7B47
:10213000904ADB00134401225A708C4B1B798D4A64
:10214000DB0013441B79052B07D0884B1B79894A88
:10215000DB0013441B79012B36D1844BDB79194604
:10216000834A0B465B000B4413449B7818460021BE
:1021700015F032FE7D4BDB797E4ADB0013440022F2
:102180009A707A4B1B791946794A0B465B000B44CF
:1021900013449B781846002115F01EFE734B1B79E3
:1021A000744ADB00134400229A70734B00221A70A9
:1021B0006D4B002283F870216B4B002283F8602165
:1021C0000020FFF727FD96E16C4B1B78022B3AD1DC
:1021D0000120FFF71FFD644B002283F88021634B31
:1021E000DB791946624A0B465B000B4413449B782B
:1021F0001846002115F0F0FD5C4BDB795D4ADB00F1
:10220000134400229A70594B1B791946584A0B46C1
:102210005B000B4413449B781846012115F0DCFD4C
:10222000524B1B79534ADB00134401229A704E4BE8
:10223000002283F870214C4B002283F860214E4B22
:1022400000221A7057E14D4B1B78042B3ED14C4BAA
:102250001B78042B3AD00120FFF7DCFC424B002214
:1022600083F88021414BDB791946414A0B465B00DC
:102270000B4413449B781846002115F0ADFD3B4BF1
:10228000DB793C4ADB00134400229A70374B1B7900
:102290001946374A0B465B000B4413449B7818469B
:1022A000012115F099FD314B1B79324ADB001344B3
:1022B00001229A702C4B002283F870212A4B0022B5
:1022C00083F860212C4B04221A7014E12A4B1B78EE
:1022D000002B7DD02B4B00221A700120FFF79AFCB7
:1022E000214B002283F88021204B1B791946204A7C
:1022F0000B465B000B4413449B781846012115F0F4
:102300006BFD1A4B1B791B4ADB00134401229A70A8
:10231000164BDB791946164A0B465B000B441344F7
:102320009B781846002115F057FD104BDB79114AB8
:10233000DB00134400229A700B4B002283F86021CB
:102340007B7B012B3FD1084B93F87031002B40F081
:10235000D280094B1B78012B16D9074B1B78013B08
:10236000DAB2054B1A7029E00C170020541900202E
:10237000F8C80300AC1800207B0100209415002051
:102380009515002078010020604B00221A70604BE8
:102390001B7919465F4A0B465B000B4413449B783C
:1023A0001846002115F018FD594B1B795A4ADB00DD
:1023B000134400229A700020FFF72CFC574B012297
:1023C00083F8702197E0554B002283F8702192E04A
:1023D000534B1B78032B40F08380504BB3F8623192
:1023E000002B04D14D4B93F86031012B04D04B4BA3
:1023F00093F86031002B1ED10120FFF70BFC474BF7
:10240000002283F88021454B002283F86021404B55
:102410001B7919463F4A0B465B000B4413449B78DB
:102420001846012115F0D8FC394B1B793A4ADB00DC
:10243000134401229A707B7B012B2FD1394B1B78DF
:10244000002B2BD1354B93F86031002B26D1364B26
:1024500000221A70314B012283F860212F4B4FF478
:10246000FA72A3F862211B20002115F0B5FC284B5D
:102470001B791946274A0B465B000B4413449B7893
:102480001846002115F0A8FC214B1B79224ADB00DD
:10249000134400229A700020FFF7BCFB7B7B002BCB
:1024A00002D1214B01221A70194BDB791946194AC6
:1024B0000B465B000B4413449B781846002115F033
:1024C0008BFC134BDB79144ADB00134400229A7017
:1024D0000E4B00221A70114B002283F870210AE083
:1024E0000A4B00221A700D4B002283F870210B4B0F
:1024F000002283F860210A4B1A780C4B1A70094AA3
:102500007B7B13701037BD4680BD00BF7B01002070
:1025100054190020F8C80300AC1800200C17002044
:10252000941500207C0100207801002095150020E2
:1025300080B582B000AF03460A46FB711346BB71FB
:10254000FB79142B5FD8BB79022B1AD0032B02D056
:10255000012B2CD041E0FB790833DBB21846012176
:102560000DF0C4F9FB793133DBB2184600210DF0D0
:10257000BDF9FB791C33DBB2184600210DF0B6F92A
:1025800041E0FB790833DBB2184600210DF0AEF9CB
:10259000FB793133DBB2184601210DF0A7F9FB7945
:1025A0001C33DBB2184600210DF0A0F92BE0FB79BB
:1025B0000833DBB2184600210DF098F9FB7931336E
:1025C000DBB2184600210DF091F9FB791C33DBB228
:1025D000184601210DF08AF915E0FB790833DBB2CA
:1025E000184600210DF082F9FB793133DBB2184631
:1025F00000210DF07BF9FB791C33DBB2184600217A
:102600000DF074F900BF0837BD4680BD80B485B0B9
:1026100000AF03463960FB71424BBB60FB79042B72
:102620007AD801A252F823F03D2602006926020062
:1026300095260200C1260200ED2602000023FB734E
:102640000EE0FB7B5B003A681344FA7B4C2101FBF4
:1026500002F2B9680A4492881A80FB7B0133FB734B
:10266000FB7B132BEDD958E00023FB730EE0FB7BC3
:102670005B003A681344FA7B4C2101FB02F2B96813
:102680000A4452891A80FB7B0133FB73FB7B132BBB
:10269000EDD942E00023FB730EE0FB7B5B003A6860
:1026A0001344FA7B4C2101FB02F2B9680A44528AB6
:1026B0001A80FB7B0133FB73FB7B132BEDD92CE0E2
:1026C0000023FB730EE0FB7B5B003A681344FA7B4C
:1026D0004C2101FB02F2B9680A4492891A80FB7B03
:1026E0000133FB73FB7B132BEDD916E00023FB7347
:1026F0000EE0FB7B5B003A681344FA7B4C2101FB44
:1027000002F2B9680A44128A1A80FB7B0133FB7318
:10271000FB7B132BEDD900E000BF1437BD465DF8FD
:10272000047B70476419002080B485B000AF034675
:102730003960FB71424BBB60FB79042B7AD801A254
:1027400052F823F05927020085270200B127020022
:10275000DD270200092802000023FB730EE0FB7B4B
:102760004C2202FB03F3BA681344FA7B5200396827
:102770000A4412889A80FB7B0133FB73FB7B132B8B
:10278000EDD958E00023FB730EE0FB7B4C2202FBEB
:1027900003F3BA681344FA7B520039680A4412887A
:1027A0005A81FB7B0133FB73FB7B132BEDD942E09A
:1027B0000023FB730EE0FB7B4C2202FB03F3BA68A1
:1027C0001344FA7B520039680A4412885A82FB7B10
:1027D0000133FB73FB7B132BEDD92CE00023FB7340
:1027E0000EE0FB7B4C2202FB03F3BA681344FA7B36
:1027F000520039680A4412889A81FB7B0133FB73CB
:10280000FB7B132BEDD916E00023FB730EE0FB7B63
:102810004C2202FB03F3BA681344FA7B5200396876
:102820000A4412881A82FB7B0133FB73FB7B132B58
:10283000EDD900E000BF1437BD465DF8047B70475A
:102840006419002080B485B000AF78600023FB736A
:102850002FE00023BB73FB7B1D4ADB0013449A78F7
:10286000FB7B01331A49DB000B449B789B00DBB2F6
:102870001344DAB2FB7B02331549DB000B449B782F
:102880001B01DBB21344DAB2FB7B03331049DB00DC
:102890000B449B789B01DBB21344BB73FB7B9B080F
:1028A000DBB21A467B681344BA7B1A70FB7B043395
:1028B000FB73FB7B132BCCD97B680533044A92F85E
:1028C000A2201A701437BD465DF8047B704700BF24
:1028D000AC18002080B485B000AF78600023FB7393
:1028E0000BE0FB7B7A681A44FB7B0C49DB000B4452
:1028F0001B791370FB7B0133FB73FB7B132BF0D92C
:102900007B6803F11402FB7B0449DB000B441B7959
:1029100013701437BD465DF8047B7047AC18002077
:1029200080B485B000AF78600023FB730CE0FB7BC4
:102930005B007A681344FA7B074912010A449288C3
:102940001A80FB7B0133FB73FB7B132BEFD914370E
:10295000BD465DF8047B7047BC15002080B483B091
:1029600000AF78600A4BB3F866207B681A807B68FA
:102970000233074AB2F876201A807B680433044A8F
:10298000B2F846211A800C37BD465DF8047B7047CB
:10299000BC15002080B485B000AF78600023FB73C5
:1029A00009E0FB7BFA7B79680A441178064AD15426
:1029B000FB7B0133FB73FB7B052BF2D91437BD4640
:1029C0005DF8047B704700BF9815002080B483B089
:1029D00000AF0346FB71FB79012B02D8034AFB7958
:1029E00013700C37BD465DF8047B70479E150020C0
:1029F00080B400AF1F4B1B78012B21D11E4B1B88CD
:102A0000002B0FD11D4B1B8801339AB21B4B1A8030
:102A10001A4B1B8840F2DE32934226D9164B012214
:102A20001A8022E0154B1B88023B9AB2134B1A8086
:102A3000124B1B88642B18D80F4B00221A8014E00D
:102A40000C4B1B78022B0AD10C4B1B88032B0CD987
:102A50000A4B1B88023B9AB2084B1A8005E0064BD2
:102A600000221A80054B04221A80BD465DF8047BC3
:102A7000704700BF80010020820100207E010020FD
:102A800080B586B000AF03460A46FB711346BB71A2
:102A90000023FB820023FB740023BB7400237B74A0
:102AA00000233B740023FB730023BB82FB79184691
:102AB00000F0A6FE0346FB74FB79734A12F833302C
:102AC000002B0FD1FB79704ADB0013445B78012B9C
:102AD00008D1FA7C6D4913465B0013445B000B443C
:102AE00000229A70694BDB79BB74684B5B7B7B740B
:102AF000664BDB7C3B74BB7C012B05D07B7C012BC4
:102B000002D03B7C012B01D1012300E00023FB73A9
:102B10005E4B9B79FA799A4209D05C4B1B7BFA7920
:102B20009A4204D0594B9B7CFA799A4228D1584B4F
:102B30001B78012B0CD0022B12D0002B00D01FE0F1
:102B4000FB7B012B03D1524B01221A7018E017E0D6
:102B5000FB7B002B03D14E4B02221A7010E00FE0DA
:102B6000FB7B012B03D14A4B01221A7007E0494B32
:102B70001B88042B03D8464B00221A70FFE700BFC6
:102B8000BB79012B03D0424B1B78022B62D1FB791E
:102B90003D4ADB0013441B79012B0CD1FA79BB7938
:102BA0001046194600F07EF8FB79374ADB001344E3
:102BB00000229A7065E0FA7C344913465B001344A6
:102BC0005B000B449B78FB82FA7C304913465B0028
:102BD00013445B000B445B78FB732E4B1B88642B08
:102BE00007D92C4B1B881A462B4B33F81230BB826B
:102BF00002E0284B1B88BB82FB7B012B0AD1BB8ADE
:102C0000FA8A02FB03F31A46244BA3FB02235B0957
:102C1000FB8207E0FB8A1B031A46204BA3FB02231F
:102C20005B09FB82FA79FB8A1046194600F0A6F987
:102C3000FB791846012100F035F8FB79184A1B0191
:102C4000134401221A70FB790F4ADB00134401225E
:102C50009A7016E0FB791846002100F08FF9FA7996
:102C6000BB791046194600F01DF8FB790C4A1B0190
:102C7000134400221A70FB79034ADB00134400223C
:102C80009A701837BD4680BDAC180020A4150020EE
:102C900080010020A015002008C103001F85EB5112
:102CA0000C17002080B582B000AF03460A46FB71C6
:102CB0001346BB71FB79132B00F2F28001A252F88C
:102CC00023F000BF152D02002B2D0200412D020024
:102CD000572D02006D2D0200832D0200992D020058
:102CE000AF2D0200C52D0200A12E0200DB2D020037
:102CF000F12D0200072E02001D2E0200332E0200CD
:102D0000492E02005F2E0200A12E0200752E020045
:102D10008B2E0200BB79012B03D10F200AF0F0F8B3
:102D2000BEE01E200AF0ECF8BAE0BB79012B03D11B
:102D30000E200AF0E5F8B3E01D200AF0E1F8AFE05C
:102D4000BB79012B03D110200AF0DAF8A8E01F208C
:102D50000AF0D6F8A4E0BB79012B03D111200AF0C8
:102D6000CFF89DE020200AF0CBF899E0BB79012B49
:102D700003D112200AF0C4F892E021200AF0C0F832
:102D80008EE0BB79012B03D113200AF0B9F887E05C
:102D900022200AF0B5F883E0BB79012B03D114207F
:102DA0000AF0AEF87CE023200AF0AAF878E0BB79BC
:102DB000012B03D134200AF0A3F871E034200AF08B
:102DC0009FF86DE0BB79012B03D109200AF098F838
:102DD00066E018200AF094F862E0BB79012B03D179
:102DE0000B200AF08DF85BE01A200AF089F857E012
:102DF000BB79012B03D13D200AF082F850E03E2040
:102E00000AF07EF84CE0BB79012B03D13B200AF09D
:102E100077F845E03C200AF073F841E0BB79012BDC
:102E200003D139200AF06CF83AE03A200AF068F849
:102E300036E0BB79012B03D107200AF061F82FE0BF
:102E400016200AF05DF82BE0BB79012B03D1082096
:102E50000AF056F824E017200AF052F820E0BB7977
:102E6000012B03D10D200AF04BF819E01C200AF0C9
:102E700047F815E0BB79012B03D10C200AF040F88C
:102E80000EE01B200AF03CF80AE0BB79012B03D1CD
:102E900037200AF035F802E038200AF031F800BF98
:102EA0000837BD4680BD00BF80B582B000AF034685
:102EB0000A46FB711346BB80FB79132B42D801A253
:102EC00052F823F0152F0200152F0200152F0200D3
:102ED000152F0200152F0200152F0200152F0200DA
:102EE0002D2F0200212F0200452F0200212F02006A
:102EF0002D2F0200152F0200212F0200392F020072
:102F0000392F0200212F0200452F0200212F02003D
:102F10002D2F0200BB880320194609F0BDFF11E0E8
:102F2000BB880220194609F0B7FF0BE0BB880020E0
:102F3000194609F0B1FF05E0BB880120194609F0E8
:102F4000ABFF00BF0837BD4680BD00BF80B582B073
:102F500000AF03460A46FB711346BB80F979BB8874
:102F60001B03054AA2FB03235B090846194600F030
:102F700005F80837BD4680BD1F85EB5180B582B08E
:102F800000AF03460A46FB711346BB80FB79132B47
:102F900000F2988001A252F823F000BFED2F02004A
:102FA000F92F020005300200113002001D3002002E
:102FB0002930020035300200413002004D3002005D
:102FC000C530020059300200653002007130020045
:102FD0007D3002008930020095300200A1300200ED
:102FE000C5300200AD300200B9300200BB880D20B0
:102FF000194609F051FF65E0BB880C20194609F01D
:103000004BFF5FE0BB880E20194609F045FF59E0F1
:10301000BB880F20194609F03FFF53E0BB88102002
:10302000194609F039FF4DE0BB881120194609F017
:1030300033FF47E0BB881220194609F02DFF41E01D
:10304000BB882B20194609F027FF3BE0BB880720EF
:10305000194609F021FF35E0BB880920194609F01F
:103060001BFF2FE0BB882C20194609F015FF29E033
:10307000BB882D20194609F00FFF23E0BB882E20C6
:10308000194609F009FF1DE0BB880520194609F023
:1030900003FF17E0BB880620194609F0FDFE11E08A
:1030A000BB880B20194609F0F7FE0BE0BB880A200D
:1030B000194609F0F1FE05E0BB882F20194609F0FA
:1030C000EBFE00BF0837BD4680BD00BF80B582B0B3
:1030D00000AF03460A46FB711346BB80FB79072B02
:1030E00042D801A252F823F0093102001531020042
:1030F000213102002D310200393102004531020038
:10310000513102005D310200BB881320194609F0DD
:10311000C3FE2AE0BB881420194609F0BDFE24E056
:10312000BB881520194609F0B7FE1EE0BB881620A3
:10313000194609F0B1FE18E0BB881720194609F0BE
:10314000ABFE12E0BB881820194609F0A5FE0CE082
:10315000BB881920194609F09FFE06E0BB881A209B
:10316000194609F099FE00E000BF0837BD4680BD52
:1031700080B582B000AF03460A46FB711346BB80A0
:10318000FB79072B42D801A252F823F0AD3102009F
:10319000B9310200C5310200D1310200DD31020037
:1031A000E9310200F531020001320200BB881B2028
:1031B000194609F071FE2AE0BB881C20194609F067
:1031C0006BFE24E0BB881D20194609F065FE1EE059
:1031D000BB881E20194609F05FFE18E0BB881F203F
:1031E000194609F059FE12E0BB882020194609F063
:1031F00053FE0CE0BB882120194609F04DFE06E085
:10320000BB882220194609F047FE00E000BF0837BE
:10321000BD4680BD80B582B000AF03460A46FB7153
:103220001346BB80FB79072B42D801A252F823F04A
:10323000513202005D320200693202007532020032
:10324000813202008D32020099320200A532020062
:10325000BB882320194609F01FFE2AE0BB882420E2
:10326000194609F019FE24E0BB882520194609F00B
:1032700013FE1EE0BB882620194609F00DFE18E05B
:10328000BB882720194609F007FE12E0BB882820DA
:10329000194609F001FE0CE0BB882920194609F007
:1032A000FBFD06E0BB882A20194609F0F5FD00E089
:1032B00000BF0837BD4680BD80B48BB000AFB96099
:1032C0007A603B600346FB73FB7B4C2202FB03F3FB
:1032D000474A13447B61012387F827307EE097F843
:1032E0002730444A12F81330FA7B9A4271D197F88A
:1032F0002730013BDAB23B681A7097F827303D4A15
:103300005B0013445B78002B02D0012B17D02DE01B
:10331000FB7B374A4C2101FB03F313441833DB7961
:103320003B62FB7B324A4C2101FB03F3134418330D
:103330001B7AFB617B6993F84030BB6116E0FB7B35
:103340002B4A4C2101FB03F3134418335B7A3B6295
:10335000FB7B274A4C2101FB03F3134418339B7A70
:10336000FB617B6993F84130BB6100BF7B6993F8D7
:103370003E30012B17D13A6A13469B0013445B0081
:103380003B623A6ABB6913440A3B3B623B6A012BCE
:1033900001D102233B62184A3B6AB2FBF3F39AB2B3
:1033A0007B681A8007E042F210723B6AB2FBF3F3CB
:1033B0009AB27B681A807B681B881A46FB6903FBFC
:1033C00002F30E4AA2FB03235B099AB2BB681A8080
:1033D00009E097F82730013387F8273097F827302E
:1033E000082B7FF67CAF2C37BD465DF8047B704719
:1033F00064190020A01F0020A08601001F85EB514A
:1034000080B586B000AF03460A46FB711346BB7118
:10341000FB791B01B34A13447B61BB79002B2DD18F
:10342000FB79184600F074FA03461A467B699A80C5
:10343000FB79184600F054FA03461A467B69DA8095
:10344000FB79A94ADB00134400229A70FB79A64A53
:10345000DB0013440022DA70FA79A44913465B00BA
:1034600013440B449B781846002114F0B5FCFB79FB
:103470009F4A1B01134400221A7054E1FB799A4AB7
:10348000DB0013441B79012B1DD1FB79964ADB002D
:10349000134400229A70FB79934ADB001344002204
:1034A000DA70FA79914913465B0013440B449B7818
:1034B0001846002114F090FCFB798D4A1B0113443F
:1034C00000221A702FE1FB79894A1B0113441B79F2
:1034D000002B16D1FB79864A1B0113441B78012B64
:1034E0000FD1FB79184600F013FA03461A467B69A0
:1034F0009A80FB79184600F0F3F903461A467B6977
:10350000DA80FB797A4A1B0113441B78002B69D1BE
:10351000FB79774A1B01134401221A70F87907F1ED
:103520000C0107F10A0207F10903FFF7C5FE7B89C9
:10353000B3F5C87F06D14FF4D7737B81BB890A33BB
:103540009BB2BB817B89B3F5487F06D140F23E3305
:103550007B81BB890A339BB2BB817B7A2C33DBB284
:10356000184609F0CDFC7B7A18460021FFF752FE81
:10357000797A7B899B005F4A82FB03025210DB173A
:10358000D31A9BB208461946FFF7A0FD797ABB898A
:103590009B00584A82FB03025210DB17D31A9BB2DE
:1035A00008461946FFF7E4FD7B7A2433DBB2184660
:1035B00009F0A6FCFB794C4ADB00134401229A7007
:1035C000FB79494ADB0013440122DA70FA79474952
:1035D00013465B0013440B449B781846012114F0FA
:1035E000FBFBA0E0F87907F10C0107F10A0207F1F3
:1035F0000903FFF761FE7B7A184609F08FFC03464A
:10360000FB747B7A184609F09FFC03463B827B7A69
:10361000184609F0BBFC0346FB81FB7C012B6BD1F8
:10362000FB79314ADB0013449B78002B42D13A8A64
:103630007B899B002F4981FB03014910DB17CB1AC3
:103640009A420AD1FA89BB899B002A4981FB03016E
:103650004910DB17CB1A9A422CD07B7A2C33DBB281
:10366000184609F04DFC7B7A18460021FFF7D2FD81
:10367000797A7B899B001F4A82FB03025210DB1779
:10368000D31A9BB208461946FFF720FD797ABB8909
:103690009B00184A82FB03025210DB17D31A9BB21D
:1036A00008461946FFF764FD7B7A2433DBB21846DF
:1036B00009F026FCFA790D4913465B0013440B44CC
:1036C0009B781846012114F087FBFB79064ADB0042
