:10000000006C0020ED0400002D050000C107000079
:100010002D0500002D0500002D050000000000004A
:100020000000000000000000000000002D0500009E
:100030002D050000000000002D050000DD1300006C
:1000400075140000811400008D1400009914000044
:10005000A5140000B1140000BD140000C914000074
:10006000D5140000E1140000ED140000F9140000A4
:1000700005150000111500001D15000029150000D0
:10008000351500002D0500002D0500002D05000090
:100090002D0500002D0500002D0500002D05000098
:1000A0002D0500002D0500002D0500002D05000088
:1000B0002D0500002D0500002D0500002D05000078
:1000C0002D0500002D0500002D0500002D05000068
:1003F0002D0500002D0500002D050000FFFFFFFF6B
:10040000FFFFFFFFFFFFFFFFFFFFFFFFFE7FFFFF7D
:10041000414142424141424256302E3030302E302E
:1004200034200000000000003132333435363738D4
:100430003132333435363738313233343536373874
:100440003132333435363738313233343536373864
:10045000000000000000000000000000000000009C
:10046000000000000000000000000000000000008C
:10047000000000000000000000000000000000007C
:10048000000000000000000000000000000000006C
:1004900010B5054C237833B9044B13B10448AFF3BE
:1004A00000800123237010BD000000200000000028
:1004B000109C0000084B10B51BB108480849AFF369
:1004C00000800848036803B910BD074B002BFBD020
:1004D000BDE81040184700BF00000000109C00005D
:1004E00004000020408BFF1F0000000072B60B4983
:1004F0000A4A0A4B094C094D084E084FB846B946FE
:10050000BA46BB46BC46064885460648804706486C
:10051000804762B600F05AF9FEE7000000000000D4
:10052000006C0020D9230000F9220000FFF7FEBF75
:10053000844641EA000313F003036DD1403A41D3EE
:1005400051F8043B40F8043B51F8043B40F8043BAD
:1005500051F8043B40F8043B51F8043B40F8043B9D
:1005600051F8043B40F8043B51F8043B40F8043B8D
:1005700051F8043B40F8043B51F8043B40F8043B7D
:1005800051F8043B40F8043B51F8043B40F8043B6D
:1005900051F8043B40F8043B51F8043B40F8043B5D
:1005A00051F8043B40F8043B51F8043B40F8043B4D
:1005B00051F8043B40F8043B51F8043B40F8043B3D
:1005C000403ABDD2303211D351F8043B40F8043BDD
:1005D00051F8043B40F8043B51F8043B40F8043B1D
:1005E00051F8043B40F8043B103AEDD20C3205D3ED
:1005F00051F8043B40F8043B043AF9D2043208D0E5
:10060000D2071CBF11F8013B00F8013B01D30B8856
:1006100003806046704700BF082A13D38B078DD034
:1006200010F003038AD0C3F10403D21ADB071CBF06
:1006300011F8013B00F8013B80D331F8023B20F870
:10064000023B7BE7043AD9D3013A11F8013B00F8A9
:10065000013BF9D20B7803704B7843708B78837031
:100660006046704780B483B000AF03463960FB71C9
:1006700097F90730002B0BDA0D49FB7903F00F03D4
:10068000043B3A68D2B21201D2B20B441A7609E0A6
:10069000084997F907303A68D2B21201D2B20B4436
:1006A00083F800230C37BD465DF8047B704700BF1C
:1006B00000ED00E000E100E080B582B000AF7860BE
:1006C0007B68013BB3F1807F01D301230FE00A4A2D
:1006D0007B68013B53604FF0FF300F21FFF7C2FFF3
:1006E000054B00229A60044B04221A60002318462E
:1006F0000837BD4680BD00BF10E000E080B483B085
:1007000000AF78607B68013BB3F1807F01D30123A8
:1007100004E0054A7B68013B5360002318460C3710
:10072000BD465DF8047B704710E000E080B483B004
:1007300000AF0023FB71074B1B6803F48033002BD1
:1007400001D00123FB71FB7918460C37BD465DF8DB
:10075000047B704710E000E080B400AF054A054B11
:100760001B6843F00103136000231846BD465DF883
:10077000047B704710E000E080B582B000AF00233A
:10078000FB71FFF7D3FF0346FB71FB79002B02D00F
:100790000348FFF7B3FFFB7918460837BD4680BD15
:1007A0008038010080B500AFFFF7D6FF80BD00BFE5
:1007B00080B500AF0148FFF77FFF80BD80380100A2
:1007C00080B400AFBD465DF8047B704780B500AFD4
:1007D0000D4A0D4B1B6823F0010313600B480121E8
:1007E0000B4A002300F090FF0020002100F0AEFF34
:1007F00072B6FFF7DDFFFFF7D5FF72B606F09AFC81
:100800000023184680BD00BF00D00040CC84FF1FED
:100810003800002080B483B000AF00237B60002349
:100820007B8000233B80094B1B687B80084B1B8827
:1008300001333B803B881A047B8813447B607B68D0
:1008400018460C37BD465DF8047B7047280700202A
:100850000880FF1F80B400AFBD465DF8047B704781
:1008600080B485B000AF786039607B685B68FB60FE
:10087000FB6823F47F63FB603B685B78002B02D04E
:100880004FF4006300E00023FA681343FB603B6809
:100890009B781B01DBB2FA681343FB603B68DB7893
:1008A0001B0203F4E063FA681343FB607B68FA6899
:1008B0005A601437BD465DF8047B704780B485B03C
:1008C00000AF786039607B689B6E23F080527B6854
:1008D0009A667B685B68FB60FB6823F48053FB606F
:1008E0003B689B781B0303F48053FA681343FB6057
:1008F0007B68FA685A607B689B6EFB60FB6823F03C
:100900000E03FB603B68DB785B0003F00E03FA68C4
:100910001343FB607B68FA689A667B689B6EFB609A
:10092000FB6823F00103FB603B681B79002B01D0BF
:10093000012300E00023FA681343FB607B68FA6838
:100940009A667B689B6EFB60FB6823F08053FB60BC
:100950003B685B78002B02D04FF0805300E000230F
:10096000FA681343FB607B68FA689A661437BD46E1
:100970005DF8047B704700BF80B58CB000AFF860B5
:100980000B467A60FB720023FB850023BB620023C9
:100990007B627B68DB781B0603F070627B689B7868
:1009A0001B0403F470231A437B685B781B01DBB2E2
:1009B0001A437B681B7803F00F031343FB6100238A
:1009C0003B627B689B780133BB617B689B7801331A
:1009D0007A685278013202FB03F37B617B689B7873
:1009E00001337A681278013202FB03F33B617B68C2
:1009F000DB78013B052B23D801A252F823F000BF7E
:100A0000190A0000230A00002D0A0000410A000014
:100A1000410A0000370A0000F86800F0A1F9786286
:100A200011E0F86800F058FA78620CE0F86800F01D
:100A30002FFB786207E0F86800F004FC786202E0BF
:100A400000237B6200BFFB7A022B0AD0032B0ED05F
:100A5000012B00D014E0FB681433BB6201233B621E
:100A60000EE0FB681833BB6200233B6208E0FB68C2
:100A70001833BB62FB68FA69DA6102233B6200BF8C
:100A80001D493A6A13465B0013449B000B441B68E4
:100A9000BA6902FB03F27B6A9A421DD316493A6A8D
:100AA00013465B0013449B000B4404331B687A69B4
:100AB00002FB03F27B6A9A420ED30F493A6A13464D
:100AC0005B0013449B000B4408331B683A6902FB2C
:100AD00003F27B6A9A4201D20123FB85BB6A002B99
:100AE00005D0FB8D002B02D1BB6AFA691A60FB8D21
:100AF00018463037BD4680BDA88B000080B487B053
:100B000000AFF8600B467A60FB72FB7A032B1BD8B0
:100B100001A252F823F000BF290B0000310B0000A6
:100B2000390B0000410B0000FB681B697B610EE084
:100B3000FB685B697B610AE0FB689B697B6106E09F
:100B4000FB68DB697B6102E000237B6100BF7B699E
:100B500003F070631B0E013B052B1FD801A252F856
:100B600023F000BF7D0B0000850B00008D0B000003
:100B70009D0B00009D0B0000950B00007B6801227F
:100B8000DA700FE07B680222DA700BE07B680322E8
:100B9000DA7007E07B680622DA7003E07B680722E0
:100BA000DA7000BF7B6903F470231B0C0B4AD25C24
:100BB0007B689A707B6903F0F0031B09074AD25CDB
:100BC0007B685A707B6903F00F03044AD25C7B6830
:100BD0001A701C37BD465DF8047B7047CC8B000053
:100BE00080B483B000AF78607B6800225A737B6862
:100BF00000229A737B6800225A607B680022DA73B5
:100C00007B680022DA727B6800221A737B680022FC
:100C10001A727B6800225A727B6801229A727B6882
:100C200001221A740C37BD465DF8047B704700BF83
:100C300080B485B000AF786039600023FB817B68A9
:100C4000D3F8003103F000735B0E002B02D00223B7
:100C5000FB8151E07B684FF08062C3F800213B6864
:100C6000DB7A03F007023B681B7B1B0203F4E063A3
:100C70001A437B68C3F804213B689B7A1B0103F08D
:100C800030023B685B7ADB0003F008031A433B68E1
:100C90001B7A9B0003F004031A437B68C3F8082106
:100CA0007B680122C3F800217B68D3F8003123F070
:100CB000806323F440333A6852681A437B68C3F870
:100CC00000217B68D3F80031BB60BB6823F40003CC
:100CD000BB603B68DB7B002B02D04FF4000300E0DD
:100CE0000023BA681343BB607B68BA68C3F800216D
:100CF0003B681B68044A1360FB8918461437BD46DD
:100D00005DF8047B704700BFEC06002080B485B01E
:100D100000AF78600023FB817B68D3F8003103F0DB
:100D200000735B0E002B02D00223FB810FE07B6877
:100D3000D3F8003123F400027B68C3F800217B68FC
:100D40004FF08062C3F80021044B00221A60FB8937
:100D500018461437BD465DF8047B7047EC0600204A
:100D600080B485B000AF78607B68D3F8003103F0C1
:100D700080731B0E002B03D0064B1B68FB6001E049
:100D80000023FB60FB6818461437BD465DF8047B02
:100D9000704700BFEC06002080B483B000AF7860DD
:100DA0007B6800221A717B6801225A717B680022DD
:100DB0009A717B6800225A707B6800229A707B6867
:100DC00001221A707B680122DA700C37BD465DF88B
:100DD000047B704780B485B000AF78603960002331
:100DE000FB817B68D3F8003203F000735B0E002BAD
:100DF00002D00223FB8144E07B68D3F8003223F069
:100E000001027B68C3F800223B685B7803F00702AD
:100E10003B689B781B0203F4E0631A437B68C3F8CA
:100E200004223B681B7803F001027B68C3F80822A8
:100E30003B681B79002B01D0032200E001223B68B4
:100E40005B79002B01D0042300E000231A437B6868
:100E5000C3F800227B68D3F80032BB60BB6823F480
:100E60000003BB603B689B79002B02D04FF400036A
:100E700000E00023BA681343BB607B68BA68C3F81C
:100E80000022FB8918461437BD465DF8047B704785
:100E900080B485B000AF78607B68D3F8003203F08F
:100EA00000735B0E002B02D00223FB810DE07B68F8
:100EB000D3F8003223F400027B68C3F800227B6879
:100EC0000022C3F800220023FB81FB891846143757
:100ED000BD465DF8047B704780B485B000AF786094
:100EE0007B68D3F8003203F080731B0E002B0BD00D
:100EF0007B68D3F8083203F00103002B01D0074BC5
:100F000000E0074BFB6001E00023FB60FB68184634
:100F10001437BD465DF8047B704700BF00127A00AD
:100F200080841E0080B483B000AF78607B680022AC
:100F3000DA707B6800221A717B6801225A717B6823
:100F400000229A717B6800225A707B6800229A7096
:100F50007B6800221A707B680122DA710C37BD466B
:100F60005DF8047B704700BF80B485B000AF786047
:100F700039600023FB817B68D3F8003303F00073F2
:100F80005B0E002B02D00223FB8154E07B68D3F878
:100F9000003323F001027B68C3F800237B68D3F899
:100FA000003343F080627B68C3F800233B685B78C2
:100FB00003F007023B689B781B0203F4E0631A43CB
:100FC0007B68C3F804233B681B7803F003027B684B
:100FD000C3F808237B68D3F8003323F009023B6889
:100FE0005B79002B01D0012300E009231A437B68C1
:100FF000C3F800237B68D3F80033BB60BB6823F4DD
:101000000003BB603B689B79002B02D04FF40003C8
:1010100000E00023BA681343BB607B68BA68C3F87A
:1010200000237B68D3F8003303F080639B0E002B12
:1010300001D00123FB81FB8918461437BD465DF8BA
:10104000047B704780B485B000AF78600023FB81DB
:101050007B68D3F8003303F000735B0E002B02D0E3
:101060000223FB810CE07B68D3F8003323F40002F9
:101070007B68C3F800237B684FF08062C3F80023CD
:10108000FB8918461437BD465DF8047B704700BFE6
:1010900080B485B000AF78607B68D3F8003303F08C
:1010A00080731B0E002B0DD07B68D3F80833BB6018
:1010B000BB6803F00303BB60074ABB6852F82330E8
:1010C000FB6001E00023FB60FB6818461437BD4657
:1010D0005DF8047B704700BFDC8B000080B483B0F8
:1010E00000AF78607B6800225A727B6800221A6029
:1010F0007B6800229A727B680022DA717B6800228A
:101100001A727B6800221A717B6800225A717B6810
:1011100000229A717B680122DA720C37BD465DF8B5
:10112000047B704780B586B000AF786039600023DB
:10113000FB827B68D3F8003603F000735B0E002B54
:1011400002D00223FB8252E07868FFF709FE386183
:101150003B681B7901333A69B2FBF3F33B617B686F
:101160004FF08062C3F800263B68DB7903F007028A
:101170003B681B7A1B0203F4E0631A437B68C3F8E5
:1011800004263B681B791B0203F4E0623B685B7931
:101190001B0403F4F8131A437B68C3F808267B6822
:1011A0000122C3F800267B68D3F8003623F0806361
:1011B00023F440333A6812681A437B68C3F8002668
:1011C0007B68D3F80036FB60FB6823F40003FB6008
:1011D0003B689B7A002B02D04FF4000300E0002311
:1011E000FA681343FB607B68FA68C3F80026FB8A41
:1011F00018461837BD4680BD80B485B000AF786012
:101200000023FB817B68D3F8003603F000735B0E8C
:10121000002B02D00223FB810CE07B68D3F8003660
:1012200023F400027B68C3F800267B684FF08062DD
:10123000C3F80026FB8918461437BD465DF8047BC9
:10124000704700BF80B586B000AF78607B68D3F888
:10125000003603F080731B0E002B2BD07868FFF74D
:101260007FFD78617B69002B21D07B68D3F808363D
:10127000FB60FB6803F4E0631B0AFB60FB6801335F
:101280007A69B2FBF3F37B617B68D3F80836FB60C5
:10129000FB6803F4F8131B0CFB60FB6803F11002FE
:1012A0007B6902FB03F37B617B695B087B617B6984
:1012B0003B6101E000233B613B6918461837BD469E
:1012C00080BD00BF80B483B000AF78603960044A4D
:1012D0003B6813600C37BD465DF8047B704700BF68
:1012E000F006002080B487B000AF786039603B68BA
:1012F000002B53D03B685B68002B4FD000237B61F1
:1013000047E03B6859687A6913469B0013440B44D5
:101310003B613B691B781A46234B33F81230194660
:101320003B691B781A46204B33F812301A467B680B
:1013300053F8223023F080427B6843F821203B6938
:101340005B78002B01D0012300E00023FB603B69A8
:101350001B781A46144B33F8123019463B699B78B8
:101360001B0603F0E0623B69DB78DB0003F0080357
:101370001A433B691B7903F007031A43FB689B0779
:1013800003F080431A437B6843F821207B690133D3
:101390007B613B681A687B699A42B2D81C37BD46AC
:1013A0005DF8047B704700BFEC8B000080B483B015
:1013B00000AF78600B46FB701346BB70BB78002B08
:1013C00003D07B68FA78DA7602E07B68FA789A765E
:1013D0000C37BD465DF8047B704700BF80B400AF9A
:1013E000044B1B680133034A1360BD465DF8047B60
:1013F000704700BF1C00002080B483B000AF0346DC
:10140000FB71094997F907305B09FA7902F01F026D
:10141000012000FA02F2203341F823200C37BD46A8
:101420005DF8047B704700BF00E100E080B400AFCE
:10143000084B1B68002B09DD064B1B68013B054A66
:101440001360044B1B68002B00DC62B6BD465DF8E0
:10145000047B70472000002080B400AF72B6044BBC
:101460001B680133024A1360BD465DF8047B704778
:101470002000002080B500AF002000F0CDF880BD36
:1014800080B500AF012000F0C7F880BD80B500AF87
:10149000022000F0C1F880BD80B500AF032000F04D
:1014A000BBF880BD80B500AF042000F0B5F880BD6A
:1014B00080B500AF052000F0AFF880BD80B500AF6B
:1014C000062000F0A9F880BD80B500AF072000F02D
:1014D000A3F880BD80B500AF082000F09DF880BD66
:1014E00080B500AF092000F097F880BD80B500AF4F
:1014F0000A2000F091F880BD80B500AF0B2000F00D
:101500008BF880BD80B500AF0C2000F085F880BD61
:1015100080B500AF0D2000F07FF880BD80B500AF32
:101520000E2000F079F880BD80B500AF0F2000F0EC
:1015300073F880BD80B500AF00F094F880BD00BFA7
:1015400080B485B000AF78600B46FB707B681B6889
:10155000FB60FB6823F02003FB60FB78002B01D0CD
:10156000202300E00023FA681343FB607B68FA68DD
:101570001A601437BD465DF8047B704780B483B0B1
:1015800000AF78607B68DB6A18460C37BD465DF8B3
:10159000047B704780B483B000AF78600B46FB706B
:1015A0007B68FA789A770C37BD465DF8047B704704
:1015B00080B483B000AF78600B46FB707B68FA782C
:1015C0001A770C37BD465DF8047B704780B483B052
:1015D00000AF78600B46FB707B68FA78DA770C37DF
:1015E000BD465DF8047B704780B584B000AF03460C
:1015F000FB71084B1B68FB60FB79F8681946FFF725
:10160000D7FFFB79F8681946FFF7E0FF1037BD46B2
:1016100080BD00BF8C8C000080B584B000AF034655
:10162000FB710F4B1B68FA7953F82230FB60FB7992
:101630001846FFF7D9FFFB68002B0DD0FB685B68ED
:10164000002B09D0FB685B68FA689168FA68127B26
:10165000D2B20846114698471037BD4680BD00BF3C
:101660002400002080B584B000AF0023FB73244B1E
:101670001B687B607868FFF781FFB86033E0BB6868
:1016800003F00103002B28D0FB7B78681946002269
:10169000FFF78CFE1B4B1B68FA7B53F822303B6034
:1016A0003B68002B19D0FB7B1846FFF79DFFFB7BA7
:1016B00078681946FFF76EFF3B6802221A733B6891
:1016C0005B68002B09D03B685B683A6891683A68B0
:1016D000127BD2B2084611469847BB685B08BB60D4
:1016E000FB7B0133FB73BB68002B02D0FB7B0F2B12
:1016F000C5D978680021FFF723FF1037BD4680BDAC
:101700008C8C00002400002080B485B000AFF8600D
:101710007A601A460B46FB721346BB720A4AFB6894
:101720001360094AFB7A1371074A7B689360064A83
:10173000BB7A1373044ABB7A5373002318461437D9
:10174000BD465DF8047B70472800002080B586B058
:1017500000AF03460A46FB711346BB710023BB82F0
:10176000FB793B73BB797B73FFF776FE554B1A7B96
:10177000544B5A730123BB730023FB7526E0514B76
:101780009A68FB7D9B0013441B683B613B69002BFF
:1017900019D03B691B79022B15D03B691B683A694C
:1017A000926807F10C010846114698470346002B42
:1017B00009D0444AFB7D537340F20313BB82BB79CB
:1017C000002B00D107E0FB7D0133FB753D4B1B7BFC
:1017D000FA7D9A42D3D3BB8A002B02D0BB79012B6E
:1017E00014D1384B1A68FB799B0013441B681846C8
:1017F00000F00EFA0346BB82BB8A002B0CBF01230C
:101800000023BB752F4AFB79537101E00023BB75A0
:10181000BB7D002B32D00223BB730023FB7527E076
:10182000284B9A68FB7D9B0013441B683B613B6916
:10183000002B1AD03B691B79012B16D03B691B6822
:101840003A69926807F10C01084611469847034629
:10185000002B0AD01B4AFB7D53734FF48273BB826B
:10186000BB79002B01D100BF25E0FB7D0133FB7567
:10187000144B1B7BFA7D9A42D2D31CE00023BB732E
:10188000104B9A68FB7D9B0013441B683B613B69CE
:10189000002B08D03B691B683A69926807F10C017C
:1018A000084611469847FB7D002B00D103E0FB7DE5
:1018B000013BFB75E4E7FFF7B9FDBB8A1846183713
:1018C000BD4680BD2800002080B485B000AF7860A0
:1018D0000B46FB70FB78013B052B1BD801A252F88D
:1018E00023F000BF0F1900000919000003190000C0
:1018F0001519000015190000FD1800000623FB60F3
:101900000BE00323FB6008E00223FB6005E00123FA
:10191000FB6002E00023FB6000BF7B681B6ABB60CA
:10192000BB6823F07063BB60FB681B0603F0706349
:10193000BA681343BB607B68BA681A621437BD4645
:101940005DF8047B704700BF80B487B000AFF860DB
:101950003B1D83E80600FB681B697B617B6923F004
:101960003F037B613B7A002B01D0012300E0002381
:101970007A6913437B61FB79002B01D0022300E0DD
:1019800000237A6913437B61BB799B0003F00C034E
:101990007A6913437B617B791B0103F030037A6919
:1019A00013437B61FB687A691A611C37BD465DF899
:1019B000047B704780B485B000AF78600B46FB7045
:1019C0007B681B6CFB60FB6823F01003FB60FB78FB
:1019D000002B01D0102300E00023FA681343FB60C2
:1019E0007B68FA681A641437BD465DF8047B70475B
:1019F00080B485B000AF78600B46FB707B681B6CD1
:101A0000FB60FB6823F00803FB60FB78002B01D030
:101A1000082300E00023FA681343FB607B68FA6840
:101A20001A641437BD465DF8047B704780B485B0F6
:101A300000AF78600B46FB707B681B6CFB60FB683B
:101A400023F00403FB60FB78002B01D0042300E0AB
:101A50000023FA681343FB607B68FA681A64143742
:101A6000BD465DF8047B704780B485B000AF7860F8
:101A70000B46FB707B681B6CFB60FB6823F002036A
:101A8000FB60FB78002B01D0022300E00023FA6802
:101A90001343FB607B68FA681A641437BD465DF82F
:101AA000047B704780B485B000AF78600B46FB7054
:101AB0007B681B6CFB60FB6823F00103FB60FB7819
:101AC000002B01D0012300E00023FA681343FB60E0
:101AD0007B68FA681A641437BD465DF8047B70476A
:101AE00080B485B000AFF8600B467A60FB72FB7A79
:101AF000022B04D8FB7A04497A6841F82320143772
:101B0000BD465DF8047B7047F406002080B485B0C4
:101B100000AF78607B685B69BB60BB68DBB2BB60B1
:101B2000BB68042B13D0042B04D8012B09D0022B43
:101B30000AD018E0102B10D0802B11D0082B09D020
:101B400011E00123FB7311E00223FB730EE0042379
:101B5000FB730BE00823FB7308E01023FB7305E025
:101B60008023FB7302E0FF23FB7300BFFB7B18465F
:101B70001437BD465DF8047B704700BF80B485B064
:101B800000AF78600B46FB707B689B78FB73FB7B38
:101B900003F07F03FB73FB7883F00103DBB2DB010F
:101BA000DAB2FB7B1343FB737B68FA7B9A701437C2
:101BB000BD465DF8047B704780B485B000AF7860A7
:101BC0000B46FB70FB78FB7397F90F30002B06DA9E
:101BD0002023BB73FA7BBB7B1344DBB2FB73FB7B21
:101BE0007B737B681B793B733B7B23F01F033B7349
:101BF0007B7B03F01F03DAB23B7B1343DBB23B7307
:101C00007B683A7B1A711437BD465DF8047B7047D8
:101C100080B584B000AF78607B68184600F01AF891
:101C20000346FB81FB89002B0ED17B68703318467D
:101C300000F06CF87B684833184600F075F87B6854
:101C40007833184600F0D6F8FB8918461037BD46A1
:101C500080BD00BF80B584B000AF78600023FB81F9
:101C60007B68002B4BD000F04BFA0346FB81FB89CD
:101C7000002B04D1786800F075FA0346FB81FB89DC
:101C8000002B3CD17B6893F83430002B05D07B6867
:101C90001B6B1D481946FFF715FB7B6893F839301D
:101CA000002B06D07B6893F8383017481946FFF7A9
:101CB0000BFE7B6893F84730002B20D07B683A33CB
:101CC000114801211A46FEF757FE0346FB81FB89A6
:101CD000002B08D17B683E330B4802211A46FEF7E1
:101CE0004BFE0346FB81FB89002B08D17B68423306
:101CF000054803211A46FEF73FFE0346FB81FB8998
:101D000018461037BD4680BD0040064080B582B001
:101D100000AF786003487968FFF7E4FA0837BD46FA
:101D200080BD00BF0050064080B584B000AF786031
:101D30007B681B78002B04D07B682D481946FEF782
:101D40008FFD7B681B79002B06D07B682848043305
:101D500093E80600FFF7F8FD7B681B7F002B1FD080
:101D60007B685B7F22481946FFF79CFE7B689B7F60
:101D70001F481946FFF778FE7B68DB7F1C48194631
:101D8000FFF754FE7B6893F8203019481946FFF797
:101D90002FFE7B6893F8213015481946FFF70AFE9D
:101DA0007B681B7B002B14D00023FB730EE0FB7BB6
:101DB0007A6802339B0013449B68FA7B0C481146F7
:101DC0001A46FFF78DFEFB7B0133FB73FB7B022B77
:101DD000EDD97B6893F82230002B05D07B68223345
:101DE00003481946FEF76AFD1037BD4680BD00BFA7
:101DF0000080044080B582B000AF78607B681B78BB
:101E0000002B0CD07B685B7806481946FFF7B6FEBE
:101E10007B689B785BB203481946FFF7CDFE083715
:101E2000BD4680BD00D0074080B584B000AF78606B
:101E30007868FFF76BFE0346042B0AD0802B02D094
:101E4000012B03D008E00323FB7308E00123FB739D
:101E500005E00223FB7302E00423FB7300BFFB7B5E
:101E600018461037BD4680BD80B586B000AF78609B
:101E70000023FB821648FFF7D7FF0346FB73FB7B6B
:101E8000144819467A68FEF777FD0346FB82FB8A01
:101E9000002B18D164233B6107F108030D48002192
:101EA0001A46FEF72BFE3B69013B3B613B69002B69
:101EB00004D0FA7A7B68DB789A42EDD13B69002B3B
:101EC00001D10323FB82FB8A18461837BD4680BD2B
:101ED00000E007400040064080B588B000AF786061
:101EE0000023FB837B68002B08D107F10C03184605
:101EF000FEF752FF07F10C03BB6101E07B68BB6199
:101F00001648FEF7C5FF0346FB83BB69DB78002B51
:101F10001FD0FB8B002B1CD11048B969FEF75AFF6C
:101F20000346FB83FB8B002B13D11A237B6102E05A
:101F30007B69013B7B610948FEF7CEFF0346002B1E
:101F400002D17B69002BF3D17B69002B01D10323E4
:101F5000FB83FB8B18462037BD4680BD0040064002
:101F600080B588B000AF78600023FB837B68002BCE
:101F700008D107F10C031846FEF7D4FF07F10C0354
:101F8000BB6101E07B68BB611648FFF75BF8034665
:101F9000FB83BB69DB79002B1FD0FB8B002B1CD193
:101FA0001048B969FEF7E0FF0346FB83FB8B002B6B
:101FB00013D10A237B6102E07B69013B7B61094805
:101FC000FFF766F80346002B02D17B69002BF3D1A3
:101FD0007B69002B01D10323FB83FB8B1846203741
:101FE000BD4680BD0040064080B58AB000AF786035
:101FF0000023FB847B68002B08D107F108031846F7
:10200000FEF7EEFD07F108033B6201E07B683B62EF
:102010001648FEF77BFE0346FB843B6A1B7C002BC5
:102020001FD0FB8C002B1CD11048396AFEF700FE34
:102030000346FB84FB8C002B13D10D4BFB6102E0AC
:10204000FB69013BFB610948FEF78AFE0346002B52
:1020500002D1FB69002BF3D1FB69002B01D10323D3
:10206000FB84FB8C18462837BD4680BD00400640E7
:1020700088E7300080B588B000AF78600023FB832C
:102080007B68002B08D107F108031846FFF726F8F4
:1020900007F10803BB6101E07B68BB611748FFF7EC
:1020A000ABF80346FB83BB69DB7A002B20D0FB8BAC
:1020B000002B1DD11148B969FFF734F80346FB83A3
:1020C000FB8B002B14D14FF47A737B6102E07B69A8
:1020D000013B7B610948FFF7B5F80346002B02D1AD
:1020E0007B69002BF3D17B69002B01D10323FB8398
:1020F000FB8B18462037BD4680BD00BF0040064020
:1021000080B584B000AF0023FB8107F108031448B9
:1021100000211A46FEF7F2FCFB7A032B1BD0104875
:10212000FEF7B6FF0346002B04D10020FFF718FF8F
:102130000346FB81FB89002B0DD10323FB71002398
:10214000BB7101237B7103233B713B1D1846FFF7D5
:102150008BFE0346FB81FB8918461037BD4680BDC8
:102160000040064080B586B000AF78600023FB8257
:102170007B681846FFF7B0FE0346FB82FB8A002B04
:1021800010D17B6810331846FFF72EFF0346FB8201
:10219000FB8A002B06D17B6824331846FFF76AFFC1
:1021A0000346FB825348FFF73FFE0346022B07D04E
:1021B000032B09D0012B0BD17B683A333B610AE03A
:1021C0007B683E333B6106E07B6842333B6102E063
:1021D00000233B6100BFFB8A002B40F085803B69F8
:1021E000DB78032B63D10123FB827B6893F82F30CC
:1021F000002B0ED00623FB730223BB7301237B73DA
:1022000001233B7307F10C031846FFF72DFE03462D
:10221000FB827B6893F82030002B11D0FB8A012BC6
:102220000ED10123FB730023BB7301237B730123B6
:102230003B7307F10C031846FFF716FE0346FB82BB
:102240007B68DB78002B11D0FB8A012B0ED1022397
:10225000FB730023BB7300237B7300233B7307F1E5
:102260000C031846FFF700FE0346FB82FB8A002B97
:102270003AD17B6807331846FFF772FE0346FB82AC
:10228000FB8A002B30D13B69DB78FB733B699B7881
:10229000BB733B695B787B733B691B783B7307F1CE
:1022A0000C031846FFF7E0FD0346FB821CE03B6988
:1022B000DB78FB733B699B78BB733B695B787B7313
:1022C0003B691B783B7307F10C031846FFF7CCFD05
:1022D0000346FB82FB8A002B06D17B680733184636
:1022E000FFF73EFE0346FB82FB8A18461837BD46C1
:1022F00080BD00BF00E0074080B48BB000AF2B4B27
:102300003B622B4BBB612B4B7B612B4B3B612B4BC4
:10231000FB602B4BBB602B4BFB612B4B7B602B4A39
:102320002B4B9A4218D000237B620AE0284A7B6A32
:1023300052F8232025497B6A41F823207B6A013328
:102340007B62244B9B087A6A9A42EFD34FF0E023DA
:102350001E4AC3F8082D04E04FF0E0231C4AC3F8DE
:10236000082D09E0BB691A783B6A1A703B6A013391
:102370003B62BB690133BB617A69BB699A42F1D1A7
:10238000BA68FB689A4200D0FEE705E0FB690022CC
:102390001A70FB690133FB617A68FB699A42F5D1D7
:1023A0002C37BD465DF8047B704700BF0084FF1FDB
:1023B000349C000078A30000448BFF1F78A300002A
:1023C00078A30000000000201C0A00200080FF1FEE
:1023D000000000000004000080B400AF084B094A70
:1023E0005A60074B5B68064B42F220121A60044B9E
:1023F0004FF6FF729A60BD465DF8047B704700BFE0
:102400000020054020C528D980B483B000AF4FF02C
:10241000E023D3F80C3D7B607B689BB27B607B68DC
:1024200043F0BF6343F400337B607B6843F00403F5
:102430007B604FF0E0227B68C2F80C3D0C37BD4654
:102440005DF8047B704700BF80B483B000AF786054
:1024500039607B681B785BB203F0F0031B11DAB2C2
:102460003B681A703B6801337A68127802F00F02F9
:10247000D2B21A703B6802337A680132127852B2D3
:1024800002F0F0021211D2B21A703B6803337A687C
:102490000132127802F00F02D2B21A703B68043394
:1024A0007A680232127852B202F0F0021211D2B2FD
:1024B0001A703B6805337A680232127802F00F0214
:1024C000D2B21A703B6806337A680332127852B27D
:1024D00002F0F0021211D2B21A703B6807337A6828
:1024E0000332127802F00F02D2B21A700C37BD46D6
:1024F0005DF8047B704700BF80B483B000AF7860A4
:1025000039607B681B785BB21B01DAB27B680133F0
:102510001B781343DAB23B681A703B6801337A6860
:102520000232127852B21201D1B27A6803321278B2
:102530000A43D2B21A703B6802337A6804321278C6
:1025400052B21201D1B27A68053212780A43D2B27D
:102550001A703B6803337A680632127852B212015D
:10256000D1B27A68073212780A43D2B21A700C37A5
:10257000BD465DF8047B704780B485B000AF03466C
:102580003960FB710023FB6010E097F90720FB68BE
:1025900002FA03F303F08003DB11FB72FB683A6875
:1025A0001344FA7A1A70FB680133FB60FB68072B4F
:1025B000EBDD002318461437BD465DF8047B7047F9
:1025C00080B485B000AF786039600023FB6014E010
:1025D0003B681978FB687A6813441B785AB2FB6829
:1025E000C3F1070302FA03F3DBB20A461343DAB27C
:1025F0003B681A70FB680133FB60FB68072BE7DD63
:10260000002318461437BD465DF8047B704700BFB1
:1026100080B584B000AF786039600023FB6010E0C3
:10262000FB687A6813441A78FB68DB0019463B683C
:102630000B4452B210461946FFF79EFFFB68013368
:10264000FB60FB68072BEBDD3B6818461037BD4687
:1026500080BD00BF80B584B000AF786039600023D2
:10266000FB6010E0FB687A6813441A78FB68DB00B3
:1026700019463B680B4452B210461946FFF77CFFDF
:10268000FB680133FB60FB68032BEBDD3B681846FE
:102690001037BD4680BD00BF80B584B000AF786004
:1026A000396038680021082206F0B8F90023FB6081
:1026B0000EE0FB68DB001A467B689918FB683A68F5
:1026C000134408461946FFF77BFFFB680133FB60A4
:1026D000FB68072BEDDD3B6818461037BD4680BD13
:1026E00080B584B000AF786039603868002104227A
:1026F00006F094F90023FB600EE0FB68DB001A464D
:102700007B689918FB683A68134408461946FFF736
:1027100057FFFB680133FB60FB68032BEDDD3B6873
:1027200018461037BD4680BD80B487B000AFF86052
:10273000B9607A6000237B6111E07B69FA68134419
:102740007A69F9680A4410787A69B9680A44127893
:1027500001464A40D2B21A707B6901337B617A69C3
:102760007B689A42E9DB002318461C37BD465DF8BA
:10277000047B704780B5A4B000AFF860B9607A60A0
:1027800007F15003F8681946FFF742FF07F11003FD
:10279000B8681946FFF73CFF07F1500207F1100334
:1027A000104619464022FFF7BFFF07F150031846B5
:1027B0007968FFF771FF034618469037BD4680BD24
:1027C00090B59FB000AFF860B9607A6007F1300350
:1027D00018460021202206F021F907F110031846BF
:1027E0000021202206F01AF9FB681B785BB21B015E
:1027F000DAB2FB6801331B781343DBB287F854303D
:10280000FB6802331B785BB21B01DAB2FB6803334F
:102810001B781343DBB287F85530FB6804331B7811
:102820005BB21B01DAB2FB6805331B781343DBB2E2
:1028300087F85630FB6806331B785BB21B01DAB2AF
:10284000FB6807331B781343DBB287F8573007F177
:10285000540207F1580310461946FFF7FBFEBB6808
:1028600007F1300107F15802084611461A46FDF7F4
:102870005FFEBB6807F158021A44BB68C3F120032E
:102880001C4607F11003184611462246FDF750FE7C
:10289000BB68C3F1200307F11002D118BB6807F130
:1028A0003002084611461A46FDF742FE07F11002B3
:1028B00007F1500310461946FFF712FF97F8503002
:1028C0005BB203F0F0031B11DAB27B681A707B680D
:1028D000013397F8502002F00F02D2B21A707B68D1
:1028E000023397F8512052B202F0F0021211D2B224
:1028F0001A707B68033397F8512002F00F02D2B2AE
:102900001A707B68043397F8522052B202F0F0023A
:102910001211D2B21A707B68053397F8522002F078
:102920000F02D2B21A707B68063397F8532052B266
:1029300002F0F0021211D2B21A707B68073397F8D6
:10294000532002F00F02D2B21A707B6818467C370F
:10295000BD4690BD80B485B000AF78600023FB73A6
:102960000023BB737B681B787B737B685B783B734E
:1029700097F90D300A2B02D10A23FB7324E097F953
:102980000D300B2B02D10B23FB731DE097F90D309B
:102990000C2B02D10C23FB7316E097F90D300D2B95
:1029A00002D10D23FB730FE097F90D300E2B02D1EE
:1029B0000E23FB7308E097F90D300F2B02D10F2384
:1029C000FB7301E07B7BFB7397F90C300A2B02D180
:1029D0000A23BB7324E097F90C300B2B02D10B2395
:1029E000BB731DE097F90C300C2B02D10C23BB7389
:1029F00016E097F90C300D2B02D10D23BB730FE0BD
:102A000097F90C300E2B02D10E23BB7308E097F917
:102A10000C300F2B02D10F23BB7301E03B7BBB7348
:102A2000FA7BBB7B05491201134431F81330184679
:102A30001437BD465DF8047B704700BF0085FF1F5B
:102A400080B592B000AF786039607A6807F14403CE
:102A500012881A807B689A1C07F1400312881A803A
:102A60007B681A1D07F13C0312881A807B689A1D47
:102A700007F1380312881A8007F144031846FFF75C
:102A800069FF03461B0A9BB2DBB287F8303007F1BF
:102A900044031846FFF75EFF0346DBB287F8313088
:102AA00007F140031846FFF755FF03461B0A9BB288
:102AB000DBB287F8323007F140031846FFF74AFFD0
:102AC0000346DBB287F8333007F13C031846FFF7C3
:102AD00041FF03461B0A9BB2DBB287F8343007F193
:102AE0003C031846FFF736FF0346DBB287F8353064
:102AF00007F138031846FFF72DFF03461B0A9BB268
:102B0000DBB287F8363007F138031846FFF722FFAB
:102B10000346DBB287F8373007F1280307F13002AC
:102B200092E8030083E8030007F1280207F120037D
:102B3000104602211A46FFF743FE07F1280207F16B
:102B4000180310460A211A46FFF73AFE07F1280239
:102B500007F11003104612211A46FFF731FE07F164
:102B6000280207F10803104618211A46FFF728FE2D
:102B700007F1280207F12003104619463A68FFF7CB
:102B8000F9FD07F11803386819463A68FFF7F2FDB6
:102B900007F11003386819463A68FFF7EBFD07F1B3
:102BA0000803386819463A68FFF7E4FD3B681846A1
:102BB0004837BD4680BD00BF80B59CB000AF78608F
:102BC0000023FB667A6807F14C031068516803C361
:102BD00007F14C0207F10C03104618491A46FFF79B
:102BE000C9FD0023FB6623E007F10C02FB6EDB004E
:102BF000D018FB6EDB00124A9918FB6E013307F107
:102C00000C02DB0013441A46FFF7B4FDFB6EDB0039
:102C10000C4A9918FB6E013307F10C02DB001A44D1
:102C20000B461168526819605A60FB6E0133FB66EF
:102C3000FB6E042BD8DD7037BD4680BDF884FF1FC6
:102C4000D084FF1F0007002080B596B000AFF86069
:102C5000B9607A6000237B65B868FFF7ADFFFA685A
:102C600007F11C031068516803C300237B6520E053
:102C70007B6DC3F10403DB00144A1A4407F114030B
:102C800010461946FFF7DCFE07F11C027B6DDB00E6
:102C9000D1187B6D013307F11C02DB00134407F1EF
:102CA0001402084611461A46FFF764FD7B6D013396
:102CB0007B657B6D042BDBDD7B681A4607F14403E3
:102CC00003CB106051605837BD4680BD000700201F
:102CD00080B596B000AFF860B9607A6000237B657C
:102CE000B868FFF769FFFA6807F11C0310685168BC
:102CF00003C300237B651EE07B6DDB00144A1A448E
:102D000007F1140310461946FFF79AFE07F11C025B
:102D10007B6DDB00D1187B6D013307F11C02DB00FA
:102D2000134407F11402084611461A46FFF722FD24
:102D30007B6D01337B657B6D042BDDDD7B681A4683
:102D400007F1440303CB106051605837BD4680BD86
:102D50000007002080B582B000AF7860064B5B684A
:102D60005B6898477B689B6898477B68DB68184678
:102D700003F01CFEF2E700BF0095000080B400AF36
:102D8000BD465DF8047B704780B400AFBD465DF87A
:102D9000047B704780B400AF054B00221A70054BCE
:102DA00000221A7000BFBD465DF8047B704700BF6B
:102DB0003C0000204000002080B500AF044B1B8881
:102DC00003F00203002B01D000F032F980BD00BFF8
:102DD0000887FF1F80B500AF094B1B78012B0DD171
:102DE000084B1B88002B06D0064B1B88013B9AB270
:102DF000044B1A8002E0022003F006FE00BF80BDF3
:102E0000400000203E00002080B485B000AF0346A3
:102E1000FB800023FB73114B1B88002B14D10F4B3D
:102E20001B89FA889A4202D90623FB730EE00B4BEA
:102E300000225A80094AFB889380084B01221A809D
:102E4000074B00221A7001E00523FB73FB7B184639
:102E50001437BD465DF8047B704700BF0887FF1F2D
:102E60004000002080B584B000AF03463960FB808D
:102E70000023FB73104B5B88BB810F4B1B8803F057
:102E80000103002B11D00C4BDA68BB891A44FB8874
:102E9000104639681A4605F027FB074B5A88FB880D
:102EA00013449AB2044B5A8001E00123FB73FB7B6D
:102EB00018461037BD4680BD0887FF1F80B582B019
:102EC00000AF03460A46FB711346BB71BB79002B6A
:102ED0001BD1FB79002B02D0012B06D00BE011484F
:102EE0001149124A03F004FE05E00E4810490F4A4A
:102EF00003F0FEFD00BF0F4B00225A800D4B022253
:102F00001A80002003F080FD07E00A4B00225A805F
:102F1000084B00221A8000F0F7FA00BF0837BD46C0
:102F200080BD00BFCC090020100000401800004008
:102F3000080000400887FF1F80B584B000AF03463B
:102F40003960FB800023FB73104B5B88BB810F4B08
:102F50001B8803F00403002B11D00C4BDA68BB89EB
:102F60001A44FB88386811461A4605F0BDFA074B2B
:102F70005A88FB8813449AB2044B5A8001E001231B
:102F8000FB73FB7B18461037BD4680BD0887FF1FCB
:102F900080B582B000AF0346FB71054B00225A801A
:102FA000034B00221A8000F0AFFA0837BD4680BDFF
:102FB0000887FF1F80B400AF054B41F288321A80AA
:102FC000044B01221A70BD465DF8047B704700BFB8
:102FD0003E0000204000002080B400AF034B0022E0
:102FE0001A70BD465DF8047B704700BF40000020AA
:102FF00080B483B000AF0023FB71064B1B78002B1D
:1030000001D10123FB71FB7918460C37BD465DF8F1
:10301000047B70473C00002080B400AF034B0022CB
:103020001A70BD465DF8047B704700BF3C0000206D
:1030300080B58AB000AF0023FB810023BB81002351
:10304000FB845F4B9B88FB835D4BDB68BB6100238C
:1030500087F825305B4B3B62BB691B783B71BB69D2
:103060005B787B71BB699B78BB71BB69DB78FB715B
:10307000BB691B793B72BB695B797B72BB699B79CE
:10308000BB72BB69DB79FB72BB691B78852B02D1F4
:10309000BB699B78BB713B6A1B697B617B695B6821
:1030A000FA8CB969114407F10E0208461146984797
:1030B00003467B82FA8C7B8A1344FB84F9893B6A42
:1030C0005A883B6ADB68084611461A4600F0EAF95E
:1030D00038623B6A002B04D17B695B7887F8253026
:1030E00049E03B6A9B68184600F088F903467B7408
:1030F0007B7C002B04D07B695B7887F825303AE035
:103100003B6A9B88002B08D03B6A9B88FA8B9A42CB
:1031100003D2132387F825302DE03B6ADB88002B90
:1031200008D03B6ADB88FA8B9A4203D9132387F8CD
:10313000253020E03B6A9B68184600F07BF9034687
:103140007B747B7C002B04D07B699B7887F82530CF
:1031500011E03B6A9B68184600F088F903467B74CF
:103160007B7C002B03D0332387F8253003E03B6AB8
:10317000DB68002B8FD197F82530002B11D13B6AEB
:10318000002B0ED03B6A5B69F98BFA8C8A1A90B2DD
:10319000FA8CB969114407F10C029847034687F885
:1031A0002530BA89FB8C13449BB297F82520104632
:1031B0001946034A00F056F800BF2837BD4680BDC7
:1031C0000887FF1FC89A000080B483B000AF786002
:1031D00039607B681B789AB23B681A8001231846D5
:1031E0000C37BD465DF8047B704700BF80B483B0E8
:1031F00000AF786039607B681B78DBB25BB2002B74
:103200000ADA7B681B7803F07F03DAB27B681A70F6
:103210000A4B01221A7002E0084B00221A707B68E8
:103220001B789BB203F07F039AB23B681A8001239C
:1032300018460C37BD465DF8047B70473C00002003
:1032400080B582B000AF78603960786805F082F9A7
:1032500003461A463B681A80022318460837BD46C3
:1032600080BD00BF80B582B000AF03463A60FB71FD
:103270000B46BB80FB79002B05D1BB88184639680B
:1032800000F010F804E0FB791846396800F068F89F
:10329000034B00221A7000BF0837BD4680BD00BF37
:1032A0003C00002080B586B000AF03463960FB804B
:1032B0000123FB75284B1B78002B41D13B681B89F0
:1032C000FA889A423CD83B68FA88DA803B68DB6827
:1032D0003A68D26812784032D2B21A703B68DB6822
:1032E0001B78672B02D11D4B04221A801B4B042232
:1032F0001A803B68DB681B783B733B68DB685B7854
:103300007B733B68DB689B78BB733B68DB68DB786F
:10331000FB733B68DB681B793B743B68DB685B795C
:103320007B743B68DB689B79BB743B68DB68DB794B
:10333000FB74FB880020194600F0DAF90346FB75A0
:10334000FB7D002B04D0054B00221A8000F0DCF836
:103350001837BD4680BD00BF3C0000200887FF1F16
:1033600080B584B000AF03463960FB710323FB8155
:103370001F48204903F00AFC03467B737B7B002B2C
:1033800008D1FB79112B2CD0FB79122B29D0FB799A
:10339000312B26D03B68FA89DA803B68DB681B78E2
:1033A0003B733B68DB687F221A703B68DB68013344
:1033B0003A7B1A703B68DB680233FA791A700E4B5D
:1033C00004221A80FB890020194600F091F9034677
:1033D0007B737B7B002B03D0074B00221A8003E01A
:1033E00002E0054B00221A8000BF1037BD4680BDA9
:1033F000CC090020080000400887FF1F80B584B07A
:1034000000AF78600023FB737B68002B08D07A68DC
:10341000064B13400648194603F0B8FB0346FB73FE
:10342000FB7B18461037BD4680BD00BF180000402A
:10343000CC09002080B584B000AF78600023FB7316
:103440007B68002B08D07A68064B13400648194663
:1034500003F09CFB0346FB73FB7B18461037BD460D
:1034600080BD00BF07000040CC09002080B584B0BB
:1034700000AF78600023FB737B68002B09D07A686B
:10348000064B1340BB600648B96803F07FFB034658
:10349000FB73FB7B18461037BD4680BD00DB004048
:1034A000CC09002080B485B000AF03463A60FB80B1
:1034B0000B46BB800023BB600023FB8118E0FA8928
:1034C00013465B001344DB001A463B6813441B8819
:1034D000FA889A4209D1FA8913465B001344DB004B
:1034E0001A463B681344BB6006E0FB890133FB814D
:1034F000FA89BB889A42E2D3BB6818461437BD46A6
:103500005DF8047B704700BF80B582B000AF09480A
:10351000094903F03BFB0346FB71FB79002B06D006
:10352000064B41F288321A80054B01221A70083787
:10353000BD4680BDCC090020010000403E000020B7
:103540004000002080B500AF00F060F880BD00BFF3
:1035500080B400AF034B4FF0FF321A60BD465DF8F8
:10356000047B70474400002080B487B000AF7860CF
:103570003960144B1B683B6100237B6113E03B699E
:103580001B0EDAB239687B690B441B785340FB731E
:103590003B691A02FB7B0C4951F8233053403B61D5
:1035A0007B6901337B617A697B689A42E7D3054A7C
:1035B0003B691360002318461C37BD465DF8047B49
:1035C000704700BF440000204800002080B586B04E
:1035D00000AF786039600123FB757B68042B0DD147
:1035E000094B1B68DB433B61386804F0CDFFF86092
:1035F000FA683B699A4201D10023FB75FB7D1846AE
:103600001837BD4680BD00BF4400002080B485B09F
:1036100000AF0023BB601FE0BB681B06FB600823F4
:10362000FB710EE0FB68002B05DAFB685A000F4BBC
:103630005340FB6002E0FB685B00FB60FB79013BF1
:10364000FB71FB79002BEDD10949BB68FA6841F8A1
:103650002320BB680133BB60BB68FF2BDCD900BFF4
:103660001437BD465DF8047B704700BFB71DC10429
:103670004800002080B584B000AF0023FB8110E03B
:10368000FB895B01164A1344BB60FB891B01154A89
:1036900013447B60B868796800F0E6F8FB89013371
:1036A000FB81FB89012BEBD90023FB8110E0FB8917
:1036B0005B010D4A1344BB60FB891B010B4A134499
:1036C0007B60B868796800F0CFF8FB890133FB8133
:1036D000FB89002BEBD000BF1037BD4680BD00BF7B
:1036E00048040020889B000088040020A89B00005C
:1036F00080B586B000AF03460A46FB801346BB8008
:103700000123FB75FB885B01164A13443B613B694F
:103710001B78002B21D13B69DB69FB60FB685B797F
:103720009BB2BA889A420FD93B699B695B78002BA0
:1037300013D1BB883869194600F0F6F8386900F0F3
:103740004FFD0023FB7508E0BB88DAB23B695A7273
:10375000386900F02FFD0023FB75FB7D18461837F4
:10376000BD4680BD8804002080B584B000AF03460C
:103770003A60FB800B46BB80BB88082B21D13B689D
:10378000002B1ED0FB8818460121104A00F0A2F839
:10379000F860BB88F86819463A6800F081F903467A
:1037A000FB72FB7A002B0CD0FB8818460221084ADA
:1037B00000F090F8F860BB88F86819463A6800F0A5
:1037C00037F900BF1037BD4680BD00BF8804002018
:1037D0004804002080B586B000AF0346FB8000237C
:1037E000FB8220E0FB8A134A52F823303B613B699D
:1037F000002B15D03B699B699B88FA889A420FD1B0
:103800003B691B781A460C4B53F82230FB60FB686F
:1038100038699847FB8A074A002142F8231005E0DF
:10382000FB8A0133FB82FB8A002BDBD000BF1837F9
:10383000BD4680BDA8040020088D000080B500AF03
:1038400002200549054A00F0B7F801200449054A5D
:1038500000F0B2F880BD00BF48040020B88C000022
:1038600088040020E08C000080B483B000AF786052
:1038700039607B6800221A707B6800225A703B68AE
:103880005A7B7B685A713B689A7B7B689A713B686C
:10389000DA7B7B68DA713B685A787B681A727B68DE
:1038A00000225A823B681B78002B03D17B68074AB1
:1038B000DA6102E07B68064ADA617B683A689A61FD
:1038C00000BF0C37BD465DF8047B7047A88C000034
:1038D000B08C000080B485B000AF03463A60FB8036
:1038E0000B46BB800023FB6000237B8111E07B89BA
:1038F0005B013A6813449B695B88FA889A4205D158
:103900007B895B013A681344FB6006E07B890133E5
:103910007B817A89BB889A42E9D3FB6818461437C1
:10392000BD465DF8047B704780B485B000AF786019
:103930000B467B807B68DB69FB607B88FA68527989
:1039400093FBF2F37B817B88FA68527993FBF2F167
:1039500002FB01F29B1A9BB201333B817B687A88A0
:10396000DA823B89DAB27B685A727B687A899A82FA
:1039700000BF1437BD465DF8047B704780B485B046
:1039800000AF0346FB71FB795BB2002B0BDAFB79CE
:10399000F02B05D9FB79F92B02D80123FB7304E046
:1039A0007F23FB7301E0FB79FB73FB7B1846143725
:1039B000BD465DF8047B704780B588B000AF034614
:1039C000B9607A60FB810023FB832AE0FB8B5B01FB
:1039D000BA681344BB61BB695B8A002B10D1BB6919
:1039E0001B78DB007A6813445B68B8699847034624
:1039F000FB75FB7D002B11D1B86900F0C7FB0DE012
:103A0000BB695B8A013B9AB2BB695A82BB691B786E
:103A1000DB007A6813441B68B8699847FB8B013355
:103A2000FB83FA8BFB899A42D0D32037BD4680BDF9
:103A300080B586B000AFF8600B467A607B810123C9
:103A4000FB75FB68002B24D0FB689B691B78002B5F
:103A500006D0FB689B691A7B7B681B789A4218D159
:103A6000FB68DB691B781A467B6813441B781B09CB
:103A7000BB75BB7D022B0CD8BB7D084A52F82330A6
:103A80003B617A893B69F86811467A689847034632
:103A9000FB75FB7D18461837BD4680BD1C8D0000A8
:103AA00080B586B000AFF8600B467A607B81012359
:103AB000FB75FB68002B24D0FB689B691B78002BEF
:103AC00006D0FB689B691A7B7B681B789A4218D1E9
:103AD000FB68DB691B781A467B6813441B781B095B
:103AE000BB75BB7D032B0CD1BB7D084A52F823303C
:103AF0003B617A893B69F86811467A6898470346C2
:103B0000FB75FB7D18461837BD4680BD1C8D000037
:103B100080B588B000AFF8600B467A607B810123E6
:103B2000FB77FB68DB69BB61BB691B781A467B6866
:103B300013441B7803F00F03FB75FB7D002B2ED085
:103B4000BB695B79FA7D9A4229D8FB7D9BB27A8961
:103B50009A4224D9FB681B78022B05D9FB681B7A93
:103B600018460921FFF7AAF9FB6803F10A01BB69AE
:103B70005B781A467B681A44FB7D084611461A4654
:103B800004F0B2FCFB68FA7D5A72FB6801221A70DD
:103B9000FB689B691A89FB685A820023FB77FB7FCD
:103BA00018462037BD4680BD80B588B000AFF860AC
:103BB0000B467A607B810123FB77FB689B695B780E
:103BC000002B44D1FB68DB69BB61BB691B781A46DB
:103BD0007B681344184604F0BDFC0346C3F30B0393
:103BE000FB82BB695B799BB2FA8A9A422FD9FB6848
:103BF0001B78022B05D9FB681B7A18460921FFF7B1
:103C00005DF9FB6803F10A00BB699B781A467B6883
:103C100099187B89BA6912789B1A1A4604F064FCD9
:103C2000FB8AF8681946FFF77FFEFB680022DA700E
:103C3000FB689B69DA7BFB68DA71FB6802221A7009
:103C4000FB689B691A89FB685A820023FB77FB7F1C
:103C500018462037BD4680BD80B588B000AFF860FB
:103C60000B467A607B810123FB77FB68DB69BB61D4
:103C7000FB681B78032B6BD1FB689B8A002B67D0FA
:103C8000FB68DB780133DBB203F00F03FB75BB6924
:103C90001B781A467B6813441B7803F00F03BB752F
:103CA000BA7DFB7D9A420DD1FB68FA7DDA70FB6824
:103CB0009B8A013B9AB2FB689A82FB689B8A002B25
:103CC0000ED109E0FB681B7A18460821FFF7F6F8C9
:103CD000F86800F05BFA3BE0FB685B7ABB7702E0D8
:103CE000BB695B79BB77BB7F9AB2BB695B781946CE
:103CF0007B680B4410461946FFF7B4F80346FB7780
:103D0000FB7F002B1BD1FB689B695A89FB685A8299
:103D1000FB689B79002B1BD0FB689B8A002B17D07C
:103D2000FB689B79013BDAB2FB689A71FB689B796F
:103D3000002B0DD1F868002100F008FA08E0FB68BC
:103D40001B7A18460121FFF7B9F8F86800F01EFA4F
:103D5000FB7F18462037BD4680BD00BF80B588B0C8
:103D600000AFF8600B467A607B810123FB77FB682C
:103D7000DB69BB61FB681B78042B42D1FB68DB6904
:103D80001B781A467B6813441B7803F00F03FB75FE
:103D9000FB7D012B1FD0022B23D0002B28D1FB68E9
:103DA000DB69DB781A467B6813441A78FB689A71E2
:103DB000BB691B791A467B6813441B78BB75BB7DB6
:103DC0001846FFF7DBFD03461A46FB685A71F86890
:103DD00000F01EFA13E0FB689B691A89FB685A829F
:103DE0000DE00620FFF7D4F8F86800F0CFF906E000
:103DF0000720FFF7CDF8F86800F0C8F900BF0023EE
:103E0000FB77FB7F18462037BD4680BD80B586B066
:103E100000AF7860786800F0A3F87B689B8A013B6C
:103E2000BB82BB8A002B03D17B685B7AFB8203E0F9
:103E30007B68DB695B79FB827B680A333B617B686B
:103E4000DB695B78FB737B689B699B88BB81FB7B31
:103E50009AB2FB8A13447B81FB7B3A691344FA8A4A
:103E600010461946FFF768F803467B727B893A696A
:103E70001A447B89C3F10803104600211A4604F056
:103E800049FBBB89184608213A6900F0EBFB034661
:103E90007B727B7A002B0AD17B68BA8A9A827B6814
:103EA00001225A70BB8904497A6841F8232000BF77
:103EB0001837BD4680BD00BFA804002080B485B07F
:103EC00000AF78607B68DB69FB607B680A33BB60AE
:103ED0007B689B691B78002B04D07B689B691A7BED
:103EE000BB681A70FB681B781A46BB6813447A6873
:103EF000527A02F00F02D2B21A7000BF1437BD46D8
:103F00005DF8047B704700BF80B586B000AF786075
:103F10007B68DB697B617B680A333B617B68DB8A9A
:103F2000FB817B689B691B78002B04D07B689B69B5
:103F30001A7B3B691A70FB89C3F30B039BB203F531
:103F40008053FB817B691B781A463B691A44FB89C5
:103F50001046194604F036FB00BF1837BD4680BD39
:103F600080B485B000AF78607B68DB69FB607B68FC
:103F70000A33BB607B689B691B78002B04D07B688D
:103F80009B691A7BBB681A70FB681B781A46BB6872
:103F900013447A68D27802F00F02D2B22032D2B241
:103FA0001A7000BF1437BD465DF8047B704700BF30
:103FB00080B485B000AF78607B68DB69FB607B68AC
:103FC0000A33BB607B689B691B78002B04D07B683D
:103FD0009B691A7BBB681A70FB681B781A46BB6822
:103FE00013447A68927802F00F02D2B23032D2B221
:103FF0001A70FB68DB781A46BB6813447A689279BA
:104000001A70FB681B791A46BB6813447A685279A8
:104010001A7000BF1437BD465DF8047B704700BFBF
:1040200080B483B000AF786000BF0C37BD465DF848
:10403000047B704780B582B000AF78600020FEF747
:10404000A7FF786800F0A2F800BF0837BD4680BD22
:1040500080B483B000AF78607B68DB780133DAB27C
:104060007B68DA707B6804221A707B6800225A70C1
:104070007B689B691A897B685A8200BF0C37BD46F2
:104080005DF8047B704700BF80B582B000AF7860F8
:104090007B6800225A707B68DB780133DAB27B6878
:1040A000DA707B689B8A002B06D10020FEF770FF38
:1040B000786800F06BF81FE07B689B79002B12D0CA
:1040C0007B689B79013BDAB27B689A717B689B794C
:1040D000002B11D17B6804221A707B689B691A89B6
:1040E0007B685A8209E07B689B69DA887B685A8220
:1040F0007B685A797B681A7100BF0837BD4680BD5E
:1041000080B582B000AF78607B689B78002B02D0CE
:10411000012B09D011E07B6803221A707B689B6930
:104120005A897B685A820CE07B6802221A707B688D
:104130009B691A897B685A8203E0786800F026F848
:1041400000BF00BF0837BD4680BD00BF80B483B04C
:1041500000AF78600B46FB707B6804221A707B68A6
:1041600000225A707B689B69DA887B685A827B6878
:104170009B699A7B7B689A717B68FA789A7000BF1A
:104180000C37BD465DF8047B704700BF80B483B038
:1041900000AF78607B6800221A707B6800225A703A
:1041A0007B6800225A8200BF0C37BD465DF8047B55
:1041B000704700BF80B483B000AF78607B68012295
:1041C0001A707B6800225A707B689B69DA887B686A
:1041D0005A8200BF0C37BD465DF8047B704700BFB4
:1041E00080B483B000AF78607B6802221A707B686D
:1041F00000225A707B680022DA707B689B69DA883B
:104200007B685A8200BF0C37BD465DF8047B70475F
:1042100080B483B000AF78607B6803221A707B683B
:1042200000225A707B689B69DA887B685A827B68B7
:104230005A797B681A7100BF0C37BD465DF8047B64
:10424000704700BF80B483B000AF786000BF0C3708
:10425000BD465DF8047B704780B483B000AF7860E2
:10426000012318460C37BD465DF8047B704700BF3C
:1042700080B584B000AF78607B685B7A9BB21846EB
:10428000FEF7C2FD0346FB73FB7B002B1DD17B6851
:104290005B7A9AB27B680A3310461946FEF7E2FD54
:1042A0000346FB73FB7B002B06D17B681B7A184609
:1042B0000021FEF703FE05E07B681B7A184601210A
:1042C000FEF7FCFD7868FFF761FF00BF1037BD46C1
:1042D00080BD00BF80B483B000AF78600023184673
:1042E0000C37BD465DF8047B704700BF80B584B0D5
:1042F00000AF78607B68DB8A1846FEF785FD0346D1
:10430000FB73FB7B002B1DD17B68DB699B799AB229
:104310007B680A3310461946FEF7A4FD0346FB737B
:10432000FB7B002B04D178680021FFF70FFF10E022
:104330007B681B7A18460121FEF7C0FD7868FFF7FD
:1043400025FF07E0FB7B062B03D178680221FFF7EE
:10435000FDFE00BF1037BD4680BD00BF80B584B0F4
:1043600000AF78600023FB737B68DB79002B0BD0F8
:104370007B68DB79013BDAB27B68DA71786801210E
:10438000FFF7E4FE0123FB73FB7B18461037BD46A5
:1043900080BD00BF80B582B000AF78607B689B8A2B
:1043A000002B08D17B681B7A18460021FEF786FD9A
:1043B0007868FFF7EBFE00BF0837BD4680BD00BF41
:1043C00080B582B000AF78607B681B7A18460C21FC
:1043D000FEF774FD002318460837BD4680BD00BFB8
:1043E00080B586B000AF78607B685B78002B2BD1FE
:1043F0007868FFF7DDFD7B68DB69DB79FB827B6832
:104400000A333B617B689B699B88FB81FB8A3A6925
:104410001A44FB8AC3F10803104600211A4604F02F
:1044200079F8FB89184608213A6900F01BF9034620
:104430007B737B7B002B07D17B6801225A70FB8941
:1044400003497A6841F8232000BF1837BD4680BD74
:10445000A804002080B582B000AF78607B689B78AC
:10446000012B05D07B681B7A18460A21FEF726FD32
:10447000002318460837BD4680BD00BF80B586B012
:1044800000AF78607B685B78002B3DD17868FFF7E0
:1044900015FD7B685B7AFB827B680A333B617B6836
:1044A000DB695B78FB737B689B699B88BB81FB7BCB
:1044B0009AB2FB8A13447B81FB7B3A691344FA8AE4
:1044C00010461946FEF738FD03467B727B893A6930
:1044D0001A447B89C3F10803104600211A4604F0F0
:1044E00019F8BB89184608213A6900F0BBF8034661
:1044F0007B727B7A002B07D17B6801225A70BB89C3
:1045000003497A6841F8232000BF1837BD4680BDB3
:10451000A804002080B582B000AF78600A20FEF7C2
:1045200037FD002318460837BD4680BD80B586B0EC
:1045300000AF78607B685B78002B2ED17868FFF73E
:10454000E3FC7B680A337B617B68DB699B78FB74E7
:104550007B68DB699B793B827B689B699B88FB81DD
:10456000FB7C7A6913443A8A10461946FEF7E4FC4C
:1045700003467B73FB89184608217A6900F072F8BC
:1045800003467B737B7B002B07D17B6801225A702B
:10459000FB8904497A6841F8232000BF1837BD46DB
:1045A00080BD00BFA804002080B582B000AF786055
:1045B0000A20FEF7EDFC002318460837BD4680BDF3
:1045C00080B582B000AF78607B685B78002B10D13B
:1045D0007B681B79002B05D07B681B79013BDAB225
:1045E0007B681A717B681B79002B02D17868FFF712
:1045F0000DFC00BF0837BD4680BD00BF80B582B04E
:1046000000AF78600A20FEF7C3FC00231846083785
:10461000BD4680BD80B483B000AF786000BF0C376A
:10462000BD465DF8047B704780B582B000AF78600E
:104630000B20FEF7ADFC002318460837BD4680BDB1
:1046400080B582B000AF01F0A9F80346FB71FB7999
:1046500018460837BD4680BD80B500AF01F08CF923
:1046600080BD00BF80B588B000AF03463A60FB80D4
:104670000B46BB800123FB77144B1B88FA889A42B8
:104680001ED2BB88082B1BD83B68002B18D00F4BC1
:104690005A68FB88DB0013445B883B820B4B5A68EB
:1046A000FB88DB0013445B687B61BB887B823B68D3
:1046B000BB6107F11003184601F082F80346FB774F
:1046C000FB7F18462037BD4680BD00BFDC9B000045
:1046D00080B588B000AF786007F10C03184600F091
:1046E0008BF803467B777B7F002B1AD1FA897B6896
:1046F0009B889A4203D97B689B88FB8301E0FB89F6
:10470000FB837B689968FA8B07F10C030833084632
:10471000194603F0E9FEBA897B681A807B68FA8B38
:104720005A807B7F18462037BD4680BD80B584B057
:1047300000AF0346FB800123FB730A4B1B88FA88FA
:104740009A420AD2074B5A68FB88DB0013445B8805
:10475000184601F0F1F80346FB73FB7B184610374F
:10476000BD4680BDDC9B000080B582B000AF002359
:10477000FB8015E00F4B5A68FB88DB0013445B8815
:10478000184601F0D9F803467B717B79002B04D1E0
:10479000084B9B68FA8810469847FB880133FB80DA
:1047A000044B1B88FA889A42E4D300BF0837BD4601
:1047B00080BD00BFDC9B000080B586B000AF3B1D14
:1047C000184600F019F80346FB75FB7D002B06D157
:1047D000054B9B68B888F9883A1D0832984700BF96
:1047E0001837BD4680BD00BFD09B000080B500AF2C
:1047F00001F0BCF880BD00BF80B586B000AF786026
:104800000123FB751A4B1B887B82194B5B68FB608D
:10481000786801F01FF80346FB72FB7A002B21D168
:104820000023BB821AE0BB8ADB00FA6813445A8873
:104830007B681B889A420ED1BB8ADB00FA6813445E
:104840005A687B685B689A4205D17B68BA8A1A808D
:104850000023FB7506E0BB8A0133BB82BA8A7B8AE0
:104860009A42E0D3FB7D18461837BD4680BD00BF95
:10487000D09B000080B582B000AF0123FB71FEF732
:10488000F9FEFEF787FA074B00225A72054803F03B
:10489000B7FF054800F014FDFB7918460837BD4600
:1048A00080BD00BFAC0400200100004080B500AF17
:1048B000044804F097F8FEF78DFAFEF7BFFFFEF705
:1048C0007BFA80BDAC04002080B500AFFFF74CFF41
:1048D000FFF772FFFFF78AFF80BD00BF80B586B08B
:1048E00000AF0346B9607A60FB810023FB7518486E
:1048F000184902F04BF90346BB75BB7D002B0CD168
:10490000FEF776FB0346002B03D00820124900F087
:104910008DFC124B5B69984714E00D48104902F07A
:1049200035F90346BB75BB7D002B04D1FEF754FB64
:104930000C4800F0C5FCB86800F0A6FC03461A4617
:104940007B681A80FB7D18461837BD4680BD00BFC6
:10495000CC090020020000402C8D000000950000D2
:10496000040000400100004080B586B000AF03465F
:10497000B9607A60FB812223FB751148114902F06E
:1049800005F90346BB75BB7D002B13D0FEF712FB68
:104990000B4802F035FC0A4802F080F80A4800F0A3
:1049A0008FFCB86800F070FC03461A467B681A80DA
:1049B0000023FB75FB7D18461837BD4680BD00BF40
:1049C000CC090020010000400200004080B586B004
:1049D00000AF0346B9607A60FB812223FB750E4865
:1049E0000E4902F0D3F80346BB75BB7D002B0DD0FA
:1049F000FEF7E0FA0A4800F063FCB86800F044FCF7
:104A000003461A467B681A800023FB75FB7D184617
:104A10001837BD4680BD00BFCC0900200200004011
:104A20000400004080B586B000AF0346B9607A60EC
:104A3000FB814FF47A737B610023FB74FEF7D8FA95
:104A40000346002B03D00820054900F0EFFB054B7F
:104A50005B699847FB7C18461837BD4680BD00BF90
:104A60003C8D00000095000080B586B000AF034685
:104A7000B9607A60FB810023FB7503200D21BA68C1
:104A800003F090FB0346BB75BB7D002B02D02223B5
:104A9000FB7502E07B680D221A80FB7D18461837F3
:104AA000BD4680BD80B586B000AF0346B9607A6070
:104AB000FB810023FB7505200D21BA6803F072FB12
:104AC0000346BB75BB7D002B02D02223FB7502E0A1
:104AD0007B680D221A80FB7D18461837BD4680BDC5
:104AE00080B586B000AF0346B9607A60FB810023D1
:104AF000FB7506201021BA6803F054FB0346BB7512
:104B0000BB7D002B02D02223FB7502E07B681022C4
:104B10001A80FB7D18461837BD4680BD80B586B02B
:104B200000AF0346B9607A60FB810023FB75072064
:104B30001021BA6803F036FB0346BB75BB7D002B22
:104B400002D02223FB7502E07B6810221A80FB7DD5
:104B500018461837BD4680BD80B586B000AF034605
:104B6000B9607A60FB810023FB751C4803F004FFE9
:104B70000346BB75BB7D002B02D03723FB7524E0B9
:104B80001748184902F002F80346BB75BB7D002B9D
:104B900005D1B8680021042203F0BCFC15E01048E0
:104BA000114901F0F3FF0346BB75BB7D002B03D118
:104BB000B86801F03DFE08E001F030FEB86801F091
:104BC00037FE0748084901F075FF7B6804221A8008
:104BD000FB7D18461837BD4680BD00BFAC040020E1
:104BE000CC090020000200400004004080B586B0DF
:104BF00000AF0346B9607A60FB810023FB751B4858
:104C00001B4901F0C3FF0346BB75BB7D002B02D0DF
:104C10002423FB7524E0FB891846B96801F016FED1
:104C20000346BB75BB7D002B12D0124803F0B8FEC3
:104C30000346BB82BB8A002B07D10C480E490F4AA2
:104C400001F056FF3623FB750AE03523FB7507E0BC
:104C50007B6800221A8005480949084A01F048FF8C
:104C6000FB7D18461837BD4680BD00BFCC0900202B
:104C700000040040AC040020000100400007004098
:104C80000002004080B487B000AF0346B9607A608C
:104C9000FB810023FB75BB681B78012B02D03123FD
:104CA000FB7502E07B6800221A80FB7D18461C37EA
:104CB000BD465DF8047B704780B586B000AF034603
:104CC000B9607A60FB817223FB750023BB75FB8999
:104CD00003201946BA6803F093FA0346BB75BB7DFF
:104CE000002B08D10648102101F0E4FE7B68002269
:104CF0001A800023FB75FB7D18461837BD4680BD22
:104D0000CC09002080B586B000AF0346B9607A6058
:104D1000FB817223FB750023BB75FB8905201946B7
:104D2000BA6803F06DFA0346BB75BB7D002B08D152
:104D30000648102101F0BEFE7B6800221A80002385
:104D4000FB75FB7D18461837BD4680BDCC09002099
:104D500080B487B000AF0346B9607A60FB8100235E
:104D6000FB757B6801221A80BB6800221A70FB7DEC
:104D700018461C37BD465DF8047B704780B588B087
:104D800000AF0346B9607A60FB812223FB77BB68E2
:104D90001B78442B2CD1BB680133184603F0F4FB7D
:104DA000B861BB680533184603F0EEFB7861134B1E
:104DB00031225A72312000F05BFA1148B9697A69E0
:104DC00003F082FD0346FB74FB7C002B03D1BB6820
:104DD00000221A7007E00A484FF0F04101F0B6FED9
:104DE000BB6801221A707B6801221A800023FB77BE
:104DF000FB7F18462037BD4680BD00BFAC040020B5
:104E0000CC09002080B586B000AF0346B9607A6057
:104E1000FB810023FB75124B31225A72312000F0C6
:104E200027FAFB890F481946BA6803F077FD034655
:104E3000BB75BB7D002B03D1BB6800221A7002E05A
:104E4000BB6801221A7007484FF0F04101F07EFE66
:104E50007B6801221A80FB7D18461837BD4680BD4D
:104E6000AC040020CC09002080B586B000AF03461A
:104E7000B9607A60FB810023FB7503F069FD03468E
:104E8000BB75BB7D002B03D1BB6800221A7002E00A
:104E9000BB6801221A70054800F032FA7B680122D3
:104EA0001A80FB7D18461837BD4680BDAC04002033
:104EB00080B487B000AF0346B9607A60FB810023FD
:104EC000FB757B6800221A80FB7D18461C37BD46A7
:104ED0005DF8047B704700BF80B588B000AF034623
:104EE000B9607A60FB810023FB772C484FF0C0410A
:104EF00001F04CFE0346BB77BB7F002B02D124237D
:104F0000FB773FE0BB681B78002B04D1BB68013303
:104F10001B78442B02D02223FB7733E0BB6802339B
:104F2000184603F031FBB861BB680633184603F03E
:104F30002BFB78611948B9697A6903F075FC03465F
:104F4000BB77BB7F002B1BD1BB6820221A70BB68CC
:104F50000133184640F2022103F04CFB104ABB69B2
:104F6000D3600F4A7B6913610D4B01221A727B6873
:104F700003221A8009484FF0C04101F09BFD01E077
:104F80001023FB77FB7F002B02D0054800F0B8F917
:104F9000FB7F18462037BD4680BD00BFCC090020EE
:104FA000AC04002080B588B000AF0346B9607A60D9
:104FB000FB810023FB77FB89013BBB6143484FF03A
:104FC000C04101F0E3FD0346FB75FB7D002B02D0E1
:104FD0002423FB776EE03E4B1B7ABB753B484FF0BA
:104FE000904101F0D3FD0346FB75FB7D012B0CD1F5
:104FF000BB681B78BA7D9A4202D07323FB7759E0D5
:1050000032484FF0904101F055FDBB681B78BA7DE6
:105010009A420CD0BB681B781A46BB7D013B9A4272
:1050200002D07323FB7745E00023FB7742E04FF487
:1050300000733B61264B1A693B699A4206D93A696B
:10504000BB699A420AD01323FB7733E0204B1A69DD
:10505000BB699A4202D01323FB772BE01C4B36220C
:105060005A72362000F004F9194BDA68BB68013334
:1050700016481146BA6903F003FC0346FB75FB7D35
:10508000002B02D07223FB7714E07B6801221A8088
:105090000F4B1B7A0133DAB20D4B1A720C4BDA68E4
:1050A000BB6913440A4AD360094B1A69BB69D31A16
:1050B000074A1361FB7F002B02D0054800F020F95E
:1050C000FB7F18462037BD4680BD00BFCC090020BD
:1050D000AC04002080B586B000AF0346B9607A60AA
:1050E000FB810023FB750E484FF0C04101F04EFDDF
:1050F0000346BB75BB7D002B05D00A4800F000F9C4
:105100002423FB7507E006484FF0D04101F01EFD57
:105110007B6800221A80FB7D18461837BD4680BD8B
:10512000CC090020AC04002080B487B000AF034657
:10513000B9607A60FB810023FB757B6800221A80CE
:10514000FB7D18461C37BD465DF8047B704700BFE9
:1051500080B487B000AF0346B9607A60FB8100235A
:10516000FB757B6800221A80FB7D18461C37BD4604
:105170005DF8047B704700BF80B500AF034B5B7ADE
:10518000184600F075F800BF80BD00BFAC040020D9
:1051900080B500AFFDF70EFF05480649064A01F04D
:1051A000A7FC0820054900F041F800BF80BD00BF02
:1051B000CC0900200200004007000040348D0000B0
:1051C00080B500AF0820024900F030F800BF80BD74
:1051D0003C8D000080B500AF0820024900F026F8A1
:1051E00000BF80BD448D000080B584B000AF034691
:1051F000FB7103233B727F237B72FB79BB727823A5
:10520000FB7200233B7300237B730023BB730023DB
:10521000FB7307F108030820194600F007F8FDF7B3
:10522000FBFE00BF1037BD4680BD00BF80B584B017
:1052300000AF03463960FB800C4BFB60FB8800200D
:1052400019463A68FFF70EFA02E0FB68013BFB6083
:105250000020FFF76BFA0346002B02D0FB68002BFF
:10526000F3D100BF1037BD4680BD00BF400D030025
:1052700080B582B000AF0346FB71FB791846FFF79B
:10528000B3FF0837BD4680BD80B485B000AF7860FD
:105290000423FB817B6800221A707B680133322271
:1052A0001A707B68023300221A707B680333C822AD
:1052B0001A70FB8918461437BD465DF8047B7047A9
:1052C00080B582B000AF7860084800F019F808484F
:1052D0000849094A01F00CFC05487968074A01F0C1
:1052E00007FC00BF0837BD4680BD00BFAC040020EE
:1052F000CC090020000100400007004007000040EA
:1053000080B582B000AF78607B680022DA607B688D
:1053100000221A617B6800221A7206481C2101F0E3
:1053200015FC04484FF0F04101F010FC00BF0837B5
:10533000BD4680BDCC09002080B400AF034B044AB9
:105340001A6000BFBD465DF8047B7047C0040020B2
:105350001200351280B58CB000AF002387F82F30D3
:10536000FBF758FAB86200237B622A4ABB6A1360D3
:10537000002387F82F3016E097F82F1097F82F208A
:1053800013465B079B1ADB0018331A46BB6AD340EF
:10539000DAB207F130030B4403F8102C97F82F30E2
:1053A000013387F82F3097F82F30032BE4D907F11A
:1053B000180319481946FDF747F807F120023B1D6D
:1053C00010461946FDF740F8391D07F1180207F19C
:1053D0001003084611461A46FDF77AFC07F1100241
:1053E00007F10C0310461946FDF786F8FB7B1A46B9
:1053F000BB7B1B021A447B7B1B041A443B7B1B06B2
:1054000013447B62054A7B6A136000BF3037BD4698
:1054100080BD00BFC40400200087FF1FC00400201F
:1054200080B582B000AF7860044B1B68786819467D
:1054300003F0FCF800BF0837BD4680BDC004002063
:1054400080B58CB000AF78600B46FB700023BB6268
:1054500000233B6200237B620023FB6100237B610E
:105460000023BB610023BB600023FB627B681B0E33
:10547000DBB287F828307B681B0CDBB287F8293059
:105480007B681B0ADBB287F82A307B68DBB287F8BF
:105490002B30FB78274A52F823301B0EDBB23B77C8
:1054A000FB78244A52F823301B0CDBB27B77FB7865
:1054B000204A52F823301B0ADBB2BB77FB781D4A27
:1054C00052F82330DBB2FB7707F1280207F1200303
:1054D00010461946FCF7B8FF07F11C0207F1140348
:1054E00010461946FCF7B0FF07F1200107F114023E
:1054F00007F10C03084611461A46FDF7A5FB07F114
:105500000C0207F1080310461946FCF7F5FF0023CB
:10551000FB623B7A1A067B7A1B041A44BB7A1B0295
:105520001344FA7A1344FB62FB6A18463037BD46CF
:1055300080BD00BF648D000090B587B000AF78607B
:105540000123FB750C4B1C6800F080FA03462046D3
:105550001946FFF775FF3861786803F015F8F860B1
:105560003A69FB689A4201D10023FB75FB7D18461E
:105570001C37BD4690BD00BFC004002080B400AF02
:10558000BD465DF8047B704780B500AFFCF73CFF7B
:1055900080BD00BF80B400AFBD465DF8047B70479E
:1055A00080B400AFBD465DF8047B704780B400AFA7
:1055B000034B01221A60BD465DF8047B704700BFB3
:1055C0002807002080B582B000AF0123FB71FBF7F4
:1055D000D3F80346012B06D10023FB71044B1B6853
:1055E0000133034A1360FB7918460837BD4680BD76
:1055F0002807002080B400AFBD465DF8047B7047EB
:1056000080B400AF054A054B1B6823F00303136009
:1056100000231846BD465DF8047B704710E000E0AB
:1056200080B400AFBD465DF8047B704780B500AF25
:10563000FFF7E6FF80BD00BF80B582B000AF044B2E
:105640001B687B607B6898470837BD4680BD00BFFC
:1056500084E0010080B400AFBD465DF8047B704774
:1056600080B584B000AFF860B9607A60FB68184616
:105670007968BA6802F038FF002318461037BD4633
:1056800080BD00BF80B584B000AFF860B9607A60BB
:10569000FB6878681946BA6802F026FF00231846AE
:1056A0001037BD4680BD00BF80B487B000AF7860C2
:1056B0007B689B683B617B68DB68FB607B685B6841
:1056C000BB6000237B610AE0FA687B691344B96818
:1056D0007A690A4412781A707B6901337B617A69AE
:1056E0003B699A42F0D37B6800225A7000BF1C3796
:1056F000BD465DF8047B704780B588B000AF786028
:105700000123FB777B681B6998477B685B68BB61FB
:105710007B68D3E90623C7E902230B4B7B6107F1C2
:1057200008027B69B869114698470346002B02D1ED
:105730000023FB7701E00123FB777B68FA7F5A7037
:1057400000BF2037BD4680BD256D002080B586B0E6
:1057500000AF78600023FB757B685B683B617B680A
:105760009B68FB60094BBB60BB683869F968984768
:105770000346FB7502E07B681B699847FB7D002BA5
:10578000F9D100BF1837BD4680BD00BF3D6C002079
:1057900080B500AF00F024FE80BD00BF80B582B0B0
:1057A00000AF0023FB710023BB80002000F054FDFC
:1057B000002000F0D5FDFB7918460837BD4680BDB6
:1057C00080B588B000AF78600023FB777B685B68AA
:1057D000FB6001233B767B685B88DBB2BB760123F1
:1057E0007B767B689B6803331B781A067B689B6813
:1057F00002331B781B041A447B689B6801331B78B7
:105800001B0213447A689268127813443B617B68E8
:105810009B6807331B781A067B689B6806331B78E6
:105820001B041A447B689B6805331B781B021344D6
:105830007A6892680432127813447B6107F10C0392
:105840000020194600F048FEFB7F18462037BD4671
:1058500080BD00BF80B588B000AF78600123FB77C2
:105860000023BB7700237B770020002100F022FF7C
:105870000346012B04D101237B770023BB770AE089
:105880000020012100F016FF0346012B03D1012364
:105890007B770123BB777B7F012B47D1BB7F002028
:1058A000194600F0E5FEBA7F07F108030020114613
:1058B0001A4600F023FFBA687B685A607B680822AA
:1058C0005A8007F1080304331A787B681A7207F1CB
:1058D000080305331A787B685A7207F10803063308
:1058E0001A787B689A7207F1080307331A787B6885
:1058F000DA7207F1080308331A787B681A7307F124
:10590000080309331A787B685A7307F108030A33CE
:105910001A787B689A7307F108030B331A787B684F
:10592000DA737B6800221A800023FB77FB7F18461E
:105930002037BD4680BD00BF80B584B000AF0346B0
:10594000FB800123FB7300201F2100F0B3FE034600
:10595000012B05D100201F2100F08AFE0023FB73DC
:10596000FB7B18461037BD4680BD00BF80B400AF3A
:10597000BD465DF8047B704780B582B000AF002360
:10598000FB80FFF705FF034B00221A700837BD4666
:1059900080BD00BFC804002080B400AF064A064B9B
:1059A0001B6943F4A0631361034A034B1B69136132
:1059B000BD465DF8047B704700D0044080B500AF61
:1059C0003F20FBF719FD80BD80B400AF104A104B9B
:1059D0001B6943F4A06313610D4A0D4B5B6943F4EB
:1059E000A06353610A4A0A4B5B6B43F480735363B1
:1059F000084A084B5B6943F400535361054A054B61
:105A00001B6823F400531360BD465DF8047B7047A8
:105A100000D0044000F10F4080B485B000AF0346D1
:105A2000FB8008E00023FB7302E0FB7B0133FB7388
:105A3000FB7BC72BF9D9FB885A1EFA80002BF1D1CA
:105A40001437BD465DF8047B704700BF80B400AFDB
:105A5000034B1B781846BD465DF8047B704700BFBA
:105A6000C904002080B582B000AF764A754BD3F8E8
:105A7000343143F08043C2F83431724A714BD3F869
:105A8000243143F08043C2F824316E4A6D4BD3F881
:105A9000303143F08043C2F830316B4A6A4B5B6B64
:105AA00043F480735363694A684B5B6943F4005362
:105AB0005361664A654B1B6803F400531360644AE4
:105AC000634B9B6943F480739361624A614BDB6B68
:105AD00043F48073D3635F4A5E4B1B6A43F4807365
:105AE00013625D4A5C4B5B6923F0400353615B4A80
:105AF0005A4B5B6923F400435361584A574B5B6927
:105B000023F480735361544B1B699B0903F0010319
:105B1000002B01D1012300E00023FB714F4B1B69D7
:105B2000DB0B03F00103002B01D1012300E0002374
:105B3000BB714A4B1B691B0A03F00103002B01D107
:105B4000012300E000237B71BB795B00DAB2FB79B3
:105B50001344DAB27B799B00DBB213443B714FF400
:105B6000FA60FFF759FF3C4B1B699B0903F00103E7
:105B7000002B01D1012300E00023FB71374B1B698F
:105B8000DB0B03F00103002B01D1012300E0002314
:105B9000BB71324B1B691B0A03F00103002B01D1BF
:105BA000012300E000237B71BB795B00DAB2FB7953
:105BB0001344DAB27B799B00DBB21344FB70FA78B2
:105BC0003B799A4203D0264B1B78042B9BD9FB7858
:105BD000072B33D801A252F823F000BF2D5C000040
:105BE000FD5B0000055C00000D5C0000155C000022
:105BF0001D5C0000255C0000355C0000194B002294
:105C00001A701CE0174B01221A7018E0154B032282
:105C10001A7014E0134B02221A7010E0114B042288
:105C20001A700CE00F4B05221A7008E00D4B06228B
:105C30001A7004E00B4B07221A7000E000BF08370F
:105C4000BD4680BD0050064000C00440C0F00F407B
:105C500000D004400090044000F10F4000F00F40DD
:105C6000CA040020C904002080B485B000AF0346F8
:105C7000FB71FB79022B00D90FE0FB79094ADB00AD
:105C800013445B79FB730849FB7B0748FA7B50F8A8
:105C9000222042F0804241F823201437BD465DF8AF
:105CA000047B7047389400000050064080B485B0F3
:105CB00000AF0346FB71FB79022B00D91EE0FB7994
:105CC000114A52F83330FB60FB681B6823F0004236
:105CD000FB681A60FB681B6843F08042FB681A602F
:105CE000FB681B6843F08052FB681A6000BFFB68CA
:105CF0001B6803F080731B0E002BF8D01437BD46D1
:105D00005DF8047B704700BF3894000080B485B014
:105D100000AF0346FB71FB79022B00D911E0FB7940
:105D20000A4A52F83330FB60FB681B6843F000728C
:105D3000FB681A6000BFFB681B6803F00073002B50
:105D4000F9D11437BD465DF8047B704738940000E4
:105D500080B487B000AF0346FB71FB79022B00D9FA
:105D60007AE0FB793F4A52F833303B61FB793D4A98
:105D7000DB0013441B79FB733B695B6823F400521F
:105D80003B695A603B691B6843F480323B691A6087
:105D90003B691B6843F400323B691A603B691B682E
:105DA00023F000523B691A603B691B6823F40042F0
:105DB0003B691A603B691B6823F480423B691A60A7
:105DC0003B691B6843F480523B691A603B691B685E
:105DD00023F400523B691A600023FB750AE0FA7D48
:105DE0003B6902F508724FF0FF3143F82210FB7D4A
:105DF0000133FB75FB7D0F2BF1D90023FB7521E0EF
